:020000040000FA
:1000000008020020C100000009020000C901000030
:10001000FFFFFFFFFFFFFFFFFFFFFFFFFFFFFFFFF0
:10002000FFFFFFFFFFFFFFFFFFFFFFFF0D020000CD
:10003000FFFFFFFFFFFFFFFF0B0200007102000048
:1000400003010000030100000301000003010000A0
:100050000301000003010000030100000301000090
:1000600003010000FFFFFFFF030100000301000088
:10007000030100000301000003010000FFFFFFFF78
:10008000FFFFFFFF03010000030100000301000068
:100090000301000003010000030100000301000050
:1000A0000301000003010000030100000301000040
:1000B0000301000003010000030100000301000030
:1000C0001048804710488047104800471048016991
:1000D000002910D1416900290DD1816900290AD177
:1000E000C169002907D1BFF34F8F0A490A48C86088
:1000F000BFF34F8FFEE77047FEE7FEE7FEE7FEE740
:10010000FEE7FEE7CD000000750200001D010000C3
:100110000003084000ED00E00400FA0504488546AD
:1001200000F01EF800480047F5030000C046C04636
:100130000802002030B50B46014600202022012491
:1001400009E00D46D5409D4205D31D469540491B0B
:100150002546954040191546521E002DF1DC30BD54
:10016000064C0125064E05E0E36807CC2B430C3C0A
:1001700098471034B442F7D3FFF7D4FF400400008F
:1001800060040000F0B5084F7C6AFD6A3E6B844352
:100190008D439643002B02D004430D4316437C62EB
:1001A000FD623E63F0BD000000800840002A026846
:1001B00001D00A4300E08A4302607047002A01D060
:1001C0004162704781627047024801680029FCD093
:1001D000704700000000002070B50021012080045D
:1001E00001230A46FFF7CEFF0324064DA403012294
:1001F00021462846FFF7DAFF012221462846FFF76D
:10020000DDFF70BD00400B40704770477047000035
:10021000042204490428086902D090430861704709
:100220001043FBE700E000E00749002806D0012862
:10023000086906D0400840000861704700208861C6
:10024000704701221043F7E700E000E00449022272
:100250000028086901D0104300E09043086170470E
:1002600000E000E0014948617047000000E000E064
:1002700070470000F0B534491020C86033490120B0
:1002800008603348016B40242143016331498A6887
:10029000272AFCD1416A03229202914341624168BC
:1002A0000122D202114341608168C908C907FBD00D
:1002B0004168C908C900C91C4160416B4907490F21
:1002C0000329FAD1244B1968C908C900491C1960CF
:1002D0000025056241685E15B143416001689F15C4
:1002E0003943016041681A151143416081688908EA
:1002F000C907FBD0016BA14301630168B9430160E9
:1003000003210906816141683143416081684908E0
:10031000C907FBD01968C908C900891C19600562A2
:100320004168C908C900491C4160416B4907490F30
:100330000129FAD1186810210843186018680902C9
:1003400008431860F0BD00000081084000830840A9
:100350000080084000A106400002084002E008C8F2
:10036000121F08C1002AFAD170477047002001E02F
:1003700001C1121F002AFBD1704770B57D250446CC
:10038000ED0002E0284600F007F82046641EA4B203
:100390000028F7D170BD000010B504460420C0430A
:1003A000FFF736FF114810490068FFF7C3FEFFF75B
:1003B00059FF0020FFF74AFF0020FFF735FF01201B
:1003C000FFF732FF00210A4A03E01369D803FCD586
:1003D000491CA142F9D30120C043FFF725FF0020AB
:1003E000FFF722FF10BD000000127A000400002079
:1003F00000E000E0FFF7F0FE0124A4030F4D6600CB
:10040000FF27F537002221462846FFF7D7FE0022B6
:1004100031462846FFF7D2FE3846FFF7AEFF0122ED
:1004200021462846FFF7CAFE012231462846FFF73B
:10043000C5FE3846FFF7A1FFE4E7000000400B408F
:100440006004000000000020080000005C030000C1
:100450006804000008000020000200006C03000097
:0804600000000000006CDC024A
:04000005000000C136
:00000001FF
