:020000040000FA
:1000000008020020C10000003D030000FD020000C6
:10001000FFFFFFFFFFFFFFFFFFFFFFFFFFFFFFFFF0
:10002000FFFFFFFFFFFFFFFFFFFFFFFF4103000098
:10003000FFFFFFFFFFFFFFFF3F0300004303000040
:1000400003010000030100000301000003010000A0
:100050000301000003010000030100000301000090
:1000600003010000FFFFFFFF030100000301000088
:10007000030100000301000003010000FFFFFFFF78
:10008000FFFFFFFF03010000030100000301000068
:100090000301000003010000030100000301000050
:1000A0002D04000003010000030100000301000013
:1000B0000301000003010000030100000301000030
:1000C0001048804710488047104800471048016991
:1000D000002910D1416900290DD1816900290AD177
:1000E000C169002907D1BFF34F8F0A490A48C86088
:1000F000BFF34F8FFEE77047FEE7FEE7FEE7FEE740
:10010000FEE7FEE7CD000000450300001D010000F2
:100110000003084000ED00E00400FA0504488546AD
:1001200000F01EF80048004759070000C046C046CE
:100130000802002030B50B46014600202022012491
:1001400009E00D46D5409D4205D31D469540491B0B
:100150002546954040191546521E002DF1DC30BD54
:10016000064C0125064E05E0E36807CC2B430C3C0A
:1001700098471034B442F7D3FFF7D4FF900700003C
:10018000B0070000F0B596460A461349C00046186D
:1001900000230025FF2098402C46104216D0002056
:1001A000012199408C461146C1406746394206D02C
:1001B00087000F21B9400D437146B9400C43401CE4
:1001C0000828F0D33068A843204330600833361D38
:1001D000082BDEDDF0BD00002020024070B5184D78
:1001E0000446686B4607760F00F02EF8154920602C
:1001F000330000F019FA081405070714140E11143F
:10020000606000E06160296A6068052909D34009DF
:1002100008E00120C003F3E77D200002F0E70020A2
:10022000EEE7C840A060A96A4903490F072902D038
:10023000C840E06070BD0321FFF77CFFF9E70000D4
:100240000080084000127A000C490868C869C20F93
:100250004868400AC007C00F0ED00948002A0BD1D9
:100260008869C00D0007000F00D110208969044A79
:100270004902890F5043C840704700000080084081
:1002800000127A001FB541090A4A89008A18002124
:100290002E2800D10221C006C00E1268032383401D
:1002A0001A40C24054186846FFF798FF029804B0FD
:1002B000E04010BD38800840F0B5084F7C6AFD6A08
:1002C0003E6B84438D439643002B02D004430D4381
:1002D00016437C62FD623E63F0BD00000080084072
:1002E000002A026801D00A4300E08A430260704796
:1002F000002A01D04162704781627047024801685C
:100300000029FCD0704700000000002070B50021DB
:100310000120800401230A46FFF7CEFF0324064D87
:10032000A403012221462846FFF7DAFF01222146D5
:100330002846FFF7DDFF70BD00400B407047704757
:1003400070477047F0B534491020C8603349012028
:1003500008603348016B40242143016331498A68B6
:10036000272AFCD1416A03229202914341624168EB
:100370000122D202114341608168C908C907FBD03C
:100380004168C908C900C91C4160416B4907490F50
:100390000329FAD1244B1968C908C900491C1960FE
:1003A0000025056241685E15B143416001689F15F3
:1003B0003943016041681A15114341608168890819
:1003C000C907FBD0016BA14301630168B943016018
:1003D0000321090681614168314341608168490810
:1003E000C907FBD01968C908C900891C19600562D2
:1003F0004168C908C900491C4160416B4907490F60
:100400000129FAD1186810210843186018680902F8
:1004100008431860F0BD00000081084000830840D8
:100420000080084000A106400002084010B5114CB1
:100430002021204600F034F8002814D0204600F097
:100440007FF8C4B221460CA000F0DEF80121890338
:100450000C48302C08D0312C05D10122FFF748FF81
:1004600009A000F0D1F810BD0022FFF741FF09A05C
:10047000F7E700000000044064617461203D20251E
:10048000630A000000400B404C454431204F464673
:100490000A0000004C454431204F4E0A0000000085
:1004A0000069084000D001207047000070B5044684
:1004B0000D46C8888988626808432989184B1A4004
:1004C0001143084369890843606001208007844222
:1004D00006D11820FFF7D6FE2968FFF72BFE6062D1
:1004E0001048844206D11A20FFF7CCFE2968FFF796
:1004F00021FE60620C48844206D11C20FFF7C2FE38
:100500002968FFF717FE60620848844206D11E2062
:10051000FFF7B8FE2968FFF70DFE606270BD0000AE
:10052000FCE0FFFF00000440001000400010044009
:10053000002AC26801D00A4300E08A43C2607047C3
:10054000006880B270470160704710238B4041689B
:10055000002A01D0194300E0994341607047000030
:100560003EB521235B0219430123FFF7A5FE0622B6
:1005700010210020FFF706FE062220210020FFF7B1
:1005800001FEE12040020090FF2001306946888092
:100590000020C88008810C4C48812046FFF786FF68
:1005A000012211462046FFF7C3FF01220021204609
:1005B000FFF7CBFF012211462046FFF7C6FF034994
:1005C000A00108603EBD00000000044000E100E022
:1005D00070B50D460646002404E0304600F006F8EB
:1005E000641CE4B2295D0029F7D170BD10B5054C3B
:1005F0002046FFF7A8FF80212046FFF751FF002883
:10060000F9D010BD000004400FB410B503A9044B8D
:10061000044A029800F024F810BC08BC04B0184743
:10062000350700000400002030B47446641E2578AD
:10063000641CAB4200D21D46635D5B00E31830BC16
:10064000184702E008C8121F08C1002AFAD17047F3
:100650007047002001E001C1121F002AFBD1704742
:10066000FFB581B00546002706E025280AD0049A88
:10067000039990476D1C7F1C28780028F5D13846D7
:1006800005B0F0BD002269786D1C10462E2913D1EB
:10069000697804226D1C2A2909D102996D1C01C9AF
:1006A000029109E00A235843303808186D1C297854
:1006B0000B46303B092BF5D92B78002BDFD0632B71
:1006C00007D0732B10D0049A1846039990477F1CCB
:1006D0002DE002996C460B782370091D02910021D0
:1006E00061706E46012104E0029940C90291002127
:1006F000C94352070AD5002400E0641C84420DDA85
:100700008C42FADB325D002AF7D107E0002400E0DA
:10071000641C8C42FCDB305D0028F9D13F1904E0F9
:100720003078049A761C03999047641EF8D26D1CA9
:10073000A2E7000070B5074D0446C1B22846FFF796
:1007400002FF80212846FFF7ABFE0028F9D02046A3
:1007500070BD000000000440FFF7D8FDFFF700FF68
:1007600002A10A48FFF734FFFEE700002D2D2D2DD2
:100770002D2D485433322055415254205445535462
:100780002D2D2D2D2D2D2D0D0A00000000000440D3
:10079000B007000000000020080000004206000032
:1007A000B807000008000020000200005206000008
:0807B000000000000000000041
:04000005000000C136
:00000001FF
