:020000040000FA
:1000000010020020C1000000FD04000021040000D7
:10001000FFFFFFFFFFFFFFFFFFFFFFFFFFFFFFFFF0
:10002000FFFFFFFFFFFFFFFFFFFFFFFF01050000D6
:10003000FFFFFFFFFFFFFFFFFF04000003050000BD
:1000400003010000030100000301000003010000A0
:10005000030100000D030000450300000301000040
:1000600003010000FFFFFFFF030100000301000088
:10007000030100000301000003010000FFFFFFFF78
:10008000FFFFFFFF03010000030100000301000068
:100090000301000003010000030100000301000050
:1000A0000301000003010000030100000301000040
:1000B0000301000003010000030100000301000030
:1000C0001048804710488047104800471048016991
:1000D000002910D1416900290DD1816900290AD177
:1000E000C169002907D1BFF34F8F0A490A48C86088
:1000F000BFF34F8FFEE77047FEE7FEE7FEE7FEE740
:10010000FEE7FEE7CD000000050500001D01000030
:100110000003084000ED00E00400FA0504488546AD
:1001200000F01EF800480047A5070000C046C04682
:100130001002002030B50B46014600202022012489
:1001400009E00D46D5409D4205D31D469540491B0B
:100150002546954040191546521E002DF1DC30BD54
:10016000064C0125064E05E0E36807CC2B430C3C0A
:1001700098471034B442F7D3FFF7D4FFD0070000FC
:10018000F007000010B50022072802D90122083824
:10019000C0B29300054A9A18136880000F24844067
:1001A000A34381401943116010BD000000200240AC
:1001B000F0B596460A461349C000461800230025AC
:1001C000FF2098402C46104216D000200121994073
:1001D0008C461146C1406746394206D087000F2140
:1001E000B9400D437146B9400C43401C0828F0D378
:1001F0003068A843204330600833361D082BDEDD0D
:10020000F0BD00002020024070B5184D0446686B18
:100210004607760F00F02EF815492060330000F0F5
:1002200083FA081405070714140E1114606000E027
:100230006160296A6068052909D3400908E0012046
:10024000C003F3E77D200002F0E70020EEE7C8409E
:10025000A060A96A4903490F072902D0C840E0609D
:1002600070BD0321FFF766FFF9E70000008008403A
:1002700000127A000C490868C869C20F4868400A31
:10028000C007C00F0ED00948002A0BD18869C00DE5
:100290000007000F00D110208969044A4902890F24
:1002A0005043C840704700000080084000127A00A8
:1002B0001FB541090A4A89008A1800212E2800D159
:1002C0000221C006C00E1268032383401A40C240B8
:1002D00054186846FFF798FF029804B0E04010BD3C
:1002E00038800840F0B5084F7C6AFD6A3E6B844355
:1002F0008D439643002B02D004430D4316437C628A
:10030000FD623E63F0BD00000080084010B50B4B5D
:1003100001211A78C9030A48002A02D0012A04D010
:1003200008E001221A70002202E000221A70012265
:1003300000F06FF8022000F021F810BD000000204E
:1003400000400B4010B50B4B01211A7889030A4875
:10035000002A02D0012A04D008E001221A700022EB
:1003600002E000221A70012200F053F8042000F08D
:1003700005F810BD0000002000400B400121814025
:100380000148416081607047404002400179027A33
:10039000C90712071143C28800681143024A80004E
:1003A0008018016070470000004002400122054BA8
:1003B00082401868012902D09043186070471043AA
:1003C000FBE7000040400240002A026801D00A43D7
:1003D00000E08A4302607047002A426801D00A4365
:1003E00000E08A4342607047002A08D0012A09D001
:1003F00082688A438260C2688A43C26070478268AA
:100400000A43F7E7C2680A43C26082688A4382608F
:100410007047002A01D04162704781627047000036
:10042000024801680029FCD0704700000400002049
:10043000FEB5012003210022400489030123FFF7B8
:1004400051FF1F4C012214212046FFF7C5FF012256
:1004500014212046FFF7C8FF012210211046FFF7A4
:10046000A7FE01210420FFF78DFE04200090012546
:1004700068460571134EC68003270772FFF786FF93
:10048000114C4020206001210420FFF78FFF012242
:1004900004211046FFF78CFE01210220FFF772FEB7
:1004A0000220009068460571C6800772FFF76EFF54
:1004B0002020206001210220FFF778FFFEBD000010
:1004C00000200B40FFFF000000E100E070B50021BC
:1004D0000120800401230A46FFF704FF0324064D90
:1004E000A403012221462846FFF76EFF0122214680
:1004F0002846FFF78EFF70BD00400B4070477047E5
:1005000070477047F0B534491020C8603349012066
:1005100008603348016B40242143016331498A68F4
:10052000272AFCD1416A0322920291434162416829
:100530000122D202114341608168C908C907FBD07A
:100540004168C908C900C91C4160416B4907490F8E
:100550000329FAD1244B1968C908C900491C19603C
:100560000025056241685E15B143416001689F1531
:100570003943016041681A15114341608168890857
:10058000C907FBD0016BA14301630168B943016056
:10059000032109068161416831434160816849084E
:1005A000C907FBD01968C908C900891C1960056210
:1005B0004168C908C900491C4160416B4907490F9E
:1005C0000129FAD118681021084318601868090237
:1005D00008431860F0BD0000008108400083084017
:1005E0000080084000A10640000208400069084061
:1005F00000D001207047000070B504460D46C88841
:100600008988626808432989184B1A4011430843B6
:1006100069890843606001208007844206D1182060
:10062000FFF746FE2968FFF785FD606210488442A7
:1006300006D11A20FFF73CFE2968FFF77BFD6062B8
:100640000C48844206D11C20FFF732FE2968FFF7D0
:1006500071FD60620848844206D11E20FFF728FE23
:100660002968FFF767FD606270BD0000FCE0FFFFD6
:10067000000004400010004000100440002AC2683E
:1006800001D00A4300E08A43C260704701607047AE
:1006900010238B404168002A01D0194300E09943A0
:1006A000416070473EB521235B0219430123FFF7E8
:1006B00019FE062210210020FFF77AFD06222021D4
:1006C0000020FFF775FDE12040020090FF2001307F
:1006D000694688800020C88008810C4C48812046EB
:1006E000FFF78AFF012211462046FFF7C7FF0122CC
:1006F00000212046FFF7CCFF012211462046FFF7DC
:10070000C7FF0349A00108603EBD0000000004408F
:1007100000E100E010B5024A024900F021F810BDE6
:10072000810700000800002030B47446641E25785C
:10073000641CAB4200D21D46635D5B00E31830BC15
:10074000184702E008C8121F08C1002AFAD17047F2
:100750007047002001E001C1121F002AFBD1704741
:10076000F8B516460F460446002503E03946B04763
:10077000641C6D1C20780028F8D12846F8BD0000C4
:1007800070B5074D0446C1B22846FFF77FFF8021B0
:100790002846FFF72BFF0028F9D0204670BD000047
:1007A00000000440FFF792FEFFF77CFFFFF740FEDA
:1007B00001A0FFF7AFFFFEE72D2D2D2D2D2D6B6531
:1007C0007920746573742D2D2D2D2D2D0A000000B8
:1007D000F0070000000000200C00000042070000AD
:1007E000FC0700000C00002004020000520700007B
:0C07F000000000000000000000000000FD
:04000005000000C136
:00000001FF
