:020000040000FA
:1000000010020020C1000000D50300001903000009
:10001000FFFFFFFFFFFFFFFFFFFFFFFFFFFFFFFFF0
:10002000FFFFFFFFFFFFFFFFFFFFFFFFD903000000
:10003000FFFFFFFFFFFFFFFFD70300003D040000AD
:1000400003010000030100000301000003010000A0
:100050000301000003010000030100000301000090
:1000600003010000FFFFFFFF030100000301000088
:10007000030100000301000003010000FFFFFFFF78
:10008000FFFFFFFF03010000030100000301000068
:100090000301000003010000030100000301000050
:1000A0000301000003010000030100000301000040
:1000B0000301000003010000030100000301000030
:1000C0001048804710488047104800471048016991
:1000D000002910D1416900290DD1816900290AD177
:1000E000C169002907D1BFF34F8F0A490A48C86088
:1000F000BFF34F8FFEE77047FEE7FEE7FEE7FEE740
:10010000FEE7FEE7CD000000410400001D010000F5
:100110000003084000ED00E00400FA0504488546AD
:1001200000F01EF80048004759070000C046C046CE
:100130001002002030B50B46014600202022012489
:1001400009E00D46D5409D4205D31D469540491B0B
:100150002546954040191546521E002DF1DC30BD54
:10016000064C0125064E05E0E36807CC2B430C3C0A
:1001700098471034B442F7D3FFF7D4FF8807000044
:10018000A8070000F0B596460A461349C000461875
:1001900000230025FF2098402C46104216D0002056
:1001A000012199408C461146C1406746394206D02C
:1001B00087000F21B9400D437146B9400C43401CE4
:1001C0000828F0D33068A843204330600833361D38
:1001D000082BDEDDF0BD00002020024070B5184D78
:1001E0000446686B4607760F00F02EF8154920602C
:1001F000330000F037FA081405070714140E111421
:10020000606000E06160296A6068052909D34009DF
:1002100008E00120C003F3E77D200002F0E70020A2
:10022000EEE7C840A060A96A4903490F072902D038
:10023000C840E06070BD0321FFF77CFFF9E70000D4
:100240000080084000127A000C490868C869C20F93
:100250004868400AC007C00F0ED00948002A0BD1D9
:100260008869C00D0007000F00D110208969044A79
:100270004902890F5043C840704700000080084081
:1002800000127A001FB541090A4A89008A18002124
:100290002E2800D10221C006C00E1268032383401D
:1002A0001A40C24054186846FFF798FF029804B0FD
:1002B000E04010BD38800840F0B5084F7C6AFD6A08
:1002C0003E6B84438D439643002B02D004430D4381
:1002D00016437C62FD623E63F0BD00000080084072
:1002E000002A026801D00A4300E08A430260704796
:1002F000002A426801D00A4300E08A434260704706
:10030000C069084000D001207047002A01D0416236
:100310007047816270470000024801680029FCD0E4
:100320007047000000000020012010B540040022AA
:10033000C1100123FFF7C0FF002214210120FFF7A5
:1003400021FF064C012214212046FFF7D1FF002295
:1003500014212046FFF7C4FF10BD000000200B4011
:1003600010B50E4C10212046FFF7CAFF002814D10B
:10037000142000F0A2F910212046FFF7C1FF002849
:100380000BD10121002289030548FFF7BEFF102190
:100390002046FFF7B5FF0028F9D010BD00200B4024
:1003A00000400B4070B500210120800401230A4663
:1003B000FFF782FF0324064DA403012221462846AD
:1003C000FFF78EFF012221462846FFF79EFF70BDF2
:1003D00000400B40704770477047000004220449FA
:1003E0000428086902D09043086170471043FBE776
:1003F00000E000E00749002806D00128086906D07F
:100400004008400008617047002088617047012261
:100410001043F7E700E000E00449022200280869E1
:1004200001D0104300E090430861704700E000E015
:10043000014948617047000000E000E0704700009B
:10044000F0B534491020C8603349012008603348B2
:10045000016B40242143016331498A68272AFCD17A
:10046000416A032292029143416241680122D20211
:10047000114341608168C908C907FBD04168C908B8
:10048000C900C91C4160416B4907490F0329FAD1D2
:10049000244B1968C908C900491C19600025056268
:1004A00041685E15B143416001689F1539430160A1
:1004B00041681A151143416081688908C907FBD05A
:1004C000016BA14301630168B9430160032109067F
:1004D000816141683143416081684908C907FBD0A7
:1004E0001968C908C900891C196005624168C908F2
:1004F000C900491C4160416B4907490F0129FAD1E4
:100500001868102108431860186809020843186029
:10051000F0BD0000008108400083084000800840D2
:1005200000A10640000208400069084000D00120F8
:100530007047000070B504460D46C8888988626817
:1005400008432989184B1A40114308436989084315
:10055000606001208007844206D11820FFF792FED8
:100560002968FFF7E7FD60621048844206D11A202F
:10057000FFF788FE2968FFF7DDFD60620C488442C2
:1005800006D11C20FFF77EFE2968FFF7D3FD6062CD
:100590000848844206D11E20FFF774FE2968FFF741
:1005A000C9FD606270BD0000FCE0FFFF0000044078
:1005B0000010004000100440002AC26801D00A4325
:1005C00000E08A43C26070470160704710238B408F
:1005D0004168002A01D0194300E099434160704707
:1005E0003EB521235B0219430123FFF765FE062276
:1005F00010210020FFF7C6FD062220210020FFF772
:10060000C1FDE12040020090FF2001306946888052
:100610000020C88008810C4C48812046FFF78AFFE3
:10062000012211462046FFF7C7FF01220021204684
:10063000FFF7CCFF012211462046FFF7C7FF034911
:10064000A00108603EBD00000000044000E100E0A1
:1006500010B5024A024900F021F810BD350700002C
:100660000800002030B47446641E2578641CAB4238
:1006700000D21D46635D5B00E31830BC184702E002
:1006800008C8121F08C1002AFAD17047704700201D
:1006900001E001C1121F002AFBD17047F8B51646D0
:1006A0000F460446002503E03946B047641C6D1C24
:1006B00020780028F8D12846F8BD70B57D2504467D
:1006C000ED0002E0284600F007F82046641EA4B2C0
:1006D0000028F7D170BD000010B504460420C043C7
:1006E000FFF77CFE114810490068FFF723FDFFF774
:1006F0009FFE0020FFF790FE0020FFF77BFE012009
:10070000FFF778FE00210A4A03E01369D803FCD5FD
:10071000491CA142F9D30120C043FFF76BFE002022
:10072000FFF768FE10BD000000127A0004000020F0
:1007300000E000E070B5074D0446C1B22846FFF75F
:1007400043FF80212846FFF7EFFE0028F9D020461E
:1007500070BD000000000440FFF724FEFFF740FFDB
:10076000FFF7E2FD02A0FFF773FFFFF7F9FDFCE7DB
:100770002D2D2D2D2D2D6B657920746573742D2DE8
:100780002D2D2D2D0A000000A807000000000020DC
:100790000C0000007E060000B40700000C000020E2
:1007A000040200008E06000000000000006CDC0265
:0407B0000000000045
:04000005000000C136
:00000001FF
