:020000040000FA
:1000000018020020C1000000150400005103000088
:10001000FFFFFFFFFFFFFFFFFFFFFFFFFFFFFFFFF0
:10002000FFFFFFFFFFFFFFFFFFFFFFFF05070000D0
:10003000FFFFFFFFFFFFFFFF03070000690700004E
:1000400003010000030100000301000003010000A0
:100050000301000003010000030100000301000090
:1000600003010000FFFFFFFF030100000301000088
:10007000030100000301000003010000FFFFFFFF78
:10008000FFFFFFFF03010000030100000301000068
:100090000301000003010000030100000301000050
:1000A0000301000003010000030100000301000040
:1000B0000301000003010000030100000301000030
:1000C0001048804710488047104800471048016991
:1000D000002910D1416900290DD1816900290AD177
:1000E000C169002907D1BFF34F8F0A490A48C86088
:1000F000BFF34F8FFEE77047FEE7FEE7FEE7FEE740
:10010000FEE7FEE7CD0000006D0700001D010000C6
:100110000003084000ED00E00400FA0504488546AD
:1001200000F01EF800480047450C0000C046C046DD
:100130001802002030B50B46014600202022012481
:1001400009E00D46D5409D4205D31D469540491B0B
:100150002546954040191546521E002DF1DC30BD54
:10016000064C0125064E05E0E36807CC2B430C3C0A
:1001700098471034B442F7D3FFF7D4FFBC1E0000F9
:10018000DC1E0000F0B596460A461349C00046182A
:1001900000230025FF2098402C46104216D0002056
:1001A000012199408C461146C1406746394206D02C
:1001B00087000F21B9400D437146B9400C43401CE4
:1001C0000828F0D33068A843204330600833361D38
:1001D000082BDEDDF0BD00002020024070B5184D78
:1001E0000446686B4607760F00F02EF8154920602C
:1001F000330000F035FC081405070714140E111421
:10020000606000E06160296A6068052909D34009DF
:1002100008E00120C003F3E77D200002F0E70020A2
:10022000EEE7C840A060A96A4903490F072902D038
:10023000C840E06070BD0321FFF77CFFF9E70000D4
:100240000080084000127A000C490868C869C20F93
:100250004868400AC007C00F0ED00948002A0BD1D9
:100260008869C00D0007000F00D110208969044A79
:100270004902890F5043C840704700000080084081
:1002800000127A001FB541090A4A89008A18002124
:100290002E2800D10221C006C00E1268032383401D
:1002A0001A40C24054186846FFF798FF029804B0FD
:1002B000E04010BD38800840F0B5084F7C6AFD6A08
:1002C0003E6B84438D439643002B02D004430D4381
:1002D00016437C62FD623E63F0BD00000080084072
:1002E000002A026801D00A4300E08A430260704796
:1002F000002A426801D00A4300E08A434260704706
:10030000002A026901D00A4300E08A430261704773
:10031000002A08D0012A09D082688A438260C26814
:100320008A43C260704782680A43F7E7C2680A439B
:10033000C26082688A4382607047C069084000D00A
:1003400001207047002A01D04162704781627047E6
:10035000024801680029FCD070470000000000201E
:1003600070B501220B4D140321462846FFF7EAFF22
:100370000122D60231462846FFF7E4FF002231462B
:100380002846FFF7DFFF002221462846FFF7DAFF65
:1003900070BD000000400B4070B5094C01221103F4
:1003A0002046FFF7CFFF0125ED0200222946204617
:1003B000FFF7C8FF012229462046FFF7C3FF70BDA3
:1003C00000400B4070B50122054D1403214628461C
:1003D000FFF7B8FF002221462846FFF7B3FF70BDA4
:1003E00000400B4070B500210120800401230A4623
:1003F000FFF762FF0324064DA4030122214628468D
:10040000FFF76EFF012221462846FFF79BFF70BDD4
:1004100000400B40704770B5064600252846002175
:10042000B03000F063F90021084600F05FF90021C8
:10043000102000F05BF900240121304600F056F94D
:10044000641CE4B2802CF7D36D1CEDB2082DE5D30B
:1004500070BD000010B500210120800401230A4670
:10046000FFF72AFF03210122C9023948FFF738FFAD
:10047000C82000F011FB0021AE2000F037F9002168
:10048000084600F033F90021102000F02FF9002178
:10049000402000F02BF90021B02000F027F90021C6
:1004A000812000F023F90021FF2000F01FF9002136
:1004B000A12000F01BF90021A62000F017F900216F
:1004C000A82000F013F900213F2000F00FF90021CF
:1004D000C82000F00BF90021D32000F007F900211B
:1004E000084600F003F90021D52000F0FFF80021B4
:1004F000802000F0FBF80021D82000F0F7F8002160
:10050000052000F0F3F80021D92000F0EFF80021D9
:10051000F12000F0EBF80021DA2000F0E7F80021EC
:10052000122000F0E3F80021DB2000F0DFF80021CA
:10053000302000F0DBF800218D2000F0D7F80021FA
:10054000142000F0D3F80021AF2000F0CFF810BD48
:1005500000400B4010B50A46044610460021B0305A
:1005600000F0C4F820090021103000F0BFF8200787
:10057000000F002100F0BAF810BD0000F8B51546D4
:100580000E460746FFF7E6FF0E490024A80145186E
:10059000285D012100F0AAF8641CE4B2102CF7D306
:1005A000761CF1B23846FFF7D5FF00242819203019
:1005B0000078012100F09AF8641CE4B2102CF5D305
:1005C000F8BD00007C150000FFB581B0203A01980D
:1005D00000240F46D5B27F2803D900208F1CFFB21C
:1005E0000190102B39460FD0FFF7B4FF062045438A
:1005F00014482D18285D012100F078F8641CE4B23D
:10060000062CF7D305B0F0BDFFF7A4FF0E4E2D0169
:100610002819305C012100F069F8641CE4B2082C50
:10062000F6D37F1CF9B20198FFF794FF0024281934
:100630008019007A012100F059F8641CE4B2082CFA
:10064000F5D3DFE7640D00008C0F0000FFB581B02B
:1006500000270A981D463C46460829E0281B401EF4
:10066000C1B20A2000F074FB01460398FFF762FD57
:100670000A21FFF75FFD002F05D1681E844202DAD0
:10068000002909D001273031CAB2304601996043B0
:100690004018C0B20A9B06E03046019960434018FA
:1006A0000A9BC0B220220299FFF78EFF641CE4B2BD
:1006B000AC42D3D305B0F0BDFFB581B017460E46AE
:1006C000044600250DE031462046049BFFF77CFFE1
:1006D0000834E4B2782C02D90024B61CF6B26D1CA2
:1006E000EDB27A5D002AEED105B0F0BD10B500295B
:1006F00003D0C0B200F09EF910BDC0B200F084F982
:1007000010BD70477047000004220449042808699E
:1007100002D09043086170471043FBE700E000E01F
:100720000749002806D00128086906D04008400083
:100730000861704700208861704701221043F7E785
:1007400000E000E0044902220028086901D01043BB
:1007500000E090430861704700E000E00149486113
:100760007047000000E000E070470000F0B5344939
:100770001020C8603349012008603348016B4024D1
:100780002143016331498A68272AFCD1416A032247
:1007900092029143416241680122D20211434160B9
:1007A0008168C908C907FBD04168C908C900C91CCC
:1007B0004160416B4907490F0329FAD1244B19685D
:1007C000C908C900491C19600025056241685E1509
:1007D000B143416001689F153943016041681A15B2
:1007E0001143416081688908C907FBD0016BA143AF
:1007F00001630168B9430160032109068161416811
:100800003143416081684908C907FBD01968C908AC
:10081000C900891C196005624168C908C900491CE2
:100820004160416B4907490F0129FAD1186810212D
:10083000084318601868090208431860F0BD0000FA
:1008400000810840008308400080084000A1064065
:10085000000208400069084000D0012070470000F5
:1008600070B504460D46C88889886268084329899E
:10087000184B1A40114308436989084360600120FE
:100880008007844206D11820FFF7FCFC2968FFF797
:1008900051FC60621048844206D11A20FFF7F2FC36
:1008A0002968FFF747FC60620C48844206D11C208F
:1008B000FFF7E8FC2968FFF73DFC606208488442C6
:1008C00006D11E20FFF7DEFC2968FFF733FC6062CB
:1008D00070BD0000FCE0FFFF00000440001000407D
:1008E00000100440002AC26801D00A4300E08A4395
:1008F000C26070470160704710238B404168002A36
:1009000001D0194300E09943416070473EB521236F
:100910005B0219430123FFF7CFFC062210210020C0
:10092000FFF730FC062220210020FFF72BFCE120FE
:1009300040020090FF200130694688800020C88076
:1009400008810C4C48812046FFF78AFF012211469E
:100950002046FFF7C7FF012200212046FFF7CCFF0A
:10096000012211462046FFF7C7FF0349A001086096
:100970003EBD00000000044000E100E070B50D46FF
:100980000646002404E0304600F006F8641CE4B299
:10099000295D0029F7D170BD10B5054C2046FFF741
:1009A000A9FF80212046FFF755FF0028F9D010BD90
:1009B00000000440F8B50126124F04463603002219
:1009C00031463846FFF7BEFC0025E009C00180280B
:1009D00016D000220121C9023846FFF7B3FC600699
:1009E000040E012231463846FFF7ACFC00223146A6
:1009F0003846FFF7A7FC6D1CEDB2082DE5D3F8BD16
:100A00000122E7E700400B4010B50446FFF7A8FCC1
:100A10007820FFF7CFFFFFF7D5FC0020FFF7CAFFD4
:100A2000FFF7D0FC2046FFF7C5FFFFF7CBFCFFF731
:100A3000B3FC10BD10B50446FFF792FC7820FFF719
:100A4000B9FFFFF7BFFC4020FFF7B4FFFFF7BAFC88
:100A50002046FFF7AFFFFFF7B5FCFFF79DFC10BD89
:100A600030B47446641E2578641CAB4200D21D4627
:100A7000635D5B00E31830BC184702E008C8121F32
:100A800008C1002AFAD170477047002001E001C177
:100A9000121F002AFBD1704770B57D250446ED007A
:100AA00002E0284600F006F82046641EA4B20028A2
:100AB000F7D170BD10B504460420C043FFF724FEF3
:100AC000114810490068FFF735FBFFF747FE00208B
:100AD000FFF738FE0020FFF723FE0120FFF720FE7E
:100AE00000210A4A03E01369D803FCD5491CA1423E
:100AF000F9D30120C043FFF713FE0020FFF710FEDB
:100B000010BD000000127A001000002000E000E09C
:100B100070B500F05DF8002000F086F81220FFF7B5
:100B2000BBFF012000F080F81420FFF7C3FF204C2A
:100B3000002201212046FFF7D3FB0022012120469D
:100B4000FFF7E6FB012211462046FFF7D1FB00F03C
:100B500033F800282BD100F02FF80028FBD000F04C
:100B60002BF80028FBD100F043F8124CA07100F0E4
:100B70003FF8E07100F03CF8207100F039F8607146
:100B800000F036F8207200F023F8012000F04CF855
:100B900020796379A179C2185518E279267AAD18BF
:100BA000EDB2B54203D1A170E2702070637070BDE8
:100BB00000000B400400002010B501210348FFF79E
:100BC000BCFB002800D0012010BD000000000B403D
:100BD00010B5064C012211462046FFF781FB00228A
:100BE00001212046FFF78CFB10BD000000000B40E8
:100BF00070B50024254601266006040EFFF7DCFFD1
:100C00000028FBD01E20FFF755FFFFF7D5FF002877
:100C100004D03443FFF7D0FF0028FBD16D1CEDB2A8
:100C2000082DE9D3204670BD10B5054B002801D032
:100C3000012200E0002201211846FFF783FB10BDCE
:100C400000000B4008B5FFF7CDFBFFF75FFEFFF795
:100C500001FC2BA13248FFF791FE0020FFF7DBFBE0
:100C6000082330A201211420FFF726FD032330A220
:100C700019461420FFF720FD0B2203215020FFF717
:100C80007DFC03232CA205211420FFF715FD0D2266
:100C900005215020FFF772FC0324294D294E2A4FCD
:100CA000FFF736FF0A212878FFF744FA02460323AC
:100CB000194632200094FFF7C9FC0A213078FFF76B
:100CC00039FA0A46032319463C200094FFF7BEFC7C
:100CD0000A213878FFF72EFA024603230521322035
:100CE0000094FFF7B3FC19480A210078FFF722FAB5
:100CF0000A46032305213C200094FFF7A7FCCFE719
:100D00002D2D2D2D2D2D48543332206F6C656420F0
:100D1000544553542D2D2D2D2D2D2D0D0A00000041
:100D20000000044068743332206F6C65640000007A
:100D3000435F543A00000000435F483A000000005F
:100D4000040000200500002006000020070000200D
:100D50000346012000E058430A46491EC9B2002A52
:100D6000F9D170470000000000000000002F0000D3
:100D700000000700070000147F147F1400242A7F5E
:100D80002A120062640813230036495522500000DD
:100D90000503000000001C224100000041221C004D
:100DA0000014083E08140008083E0808000000A0CF
:100DB00060000008080808080000606000000020CB
:100DC00010080402003E5149453E0000427F4000A9
:100DD000004261514946002141454B31001814122F
:100DE0007F10002745454539003C4A4949300001FC
:100DF0007109050300364949493600064949291E4B
:100E000000003636000000005636000000081422AC
:100E100041000014141414140000412214080002AC
:100E20000151090600324959513E007C1211127CD1
:100E3000007F49494936003E41414122007F4141FE
:100E4000221C007F49494941007F09090901003EF0
:100E50004149497A007F0808087F0000417F41002E
:100E6000002040413F01007F08142241007F4040A4
:100E70004040007F020C027F007F0408107F003E8C
:100E80004141413E007F09090906003E4151215E72
:100E9000007F091929460046494949310001017F6F
:100EA0000101003F4040403F001F2040201F003F05
:100EB0004038403F006314081463000708700807B7
:100EC00000615149454300007F41410000552A55CA
:100ED0002A55000041417F00000402010204004045
:100EE0004040404000000102040000205454547867
:100EF000007F484444380038444444200038444487
:100F0000487F00385454541800087E090102001824
:100F1000A4A4A47C007F080404780000447D400061
:100F2000004080847D00007F102844000000417F45
:100F30004000007C04180478007C08040478003821
:100F40004444443800FC242424180018242418FCA9
:100F5000007C0804040800485454542000043F4412
:100F60004020003C4040207C001C2040201C003CD5
:100F70004030403C004428102844001CA0A0A07C25
:100F8000004464544C44141414141414000000005D
:100F9000000000000000000000000000000000F859
:100FA00000000000000000333000000000100C06BC
:100FB000100C0600000000000000000040C0784057
:100FC000C0784000043F04043F040400007088FC23
:100FD00008300000001820FF211E0000F008F0007B
:100FE000E018000000211C031E211E0000F00888EC
:100FF000700000001E2123241927211010160E0056
:10100000000000000000000000000000000000E000
:101010001804020000000007182040000002041815
:10102000E00000000040201807000000404080F071
:10103000804040000202010F01020200000000F0A7
:10104000000000000101011F01010100000000007B
:101050000000000080B070000000000000000000F0
:101060000000000000010101010101010000000079
:101070000000000000303000000000000000000010
:1010800080601804006018060100000000E01008ED
:101090000810E000000F102020100F00001010F8C2
:1010A000000000000020203F202000000070080801
:1010B0000888700000302824222130000030088881
:1010C000884830000018202020110E000000C020A9
:1010D00010F8000000070424243F240000F80888CA
:1010E000880808000019212020110E0000E0108857
:1010F00088180000000F112020110E000038080889
:10110000C83808000000003F000000000070880898
:1011100008887000001C222121221C0000E0100819
:101120000810E0000000312222110F00000000C072
:10113000C00000000000003030000000000000800F
:1011400000000000000080600000000000008040FF
:101150002010080000010204081020004040404018
:10116000404040000404040404040400000810206B
:1011700040800000002010080402010000704808B0
:101180000808F0000000003036010000C030C82818
:10119000E810E0000718272423140B000000C038D3
:1011A000E0000000203C23020227382008F888884D
:1011B00088700000203F202020110E00C030080859
:1011C00008083800071820202010080008F8080830
:1011D0000810E000203F202020100F0008F8888829
:1011E000E8081000203F20202320180008F88888F5
:1011F000E8081000203F200003000000C03008086D
:101200000838000007182020221E020008F80800F5
:101210000008F808203F210101213F20000808F8BC
:10122000080800000020203F2020000000000808DF
:10123000F8080800C08080807F00000008F888C09F
:1012400028180800203F20012638200008F8080050
:1012500000000000203F20202020300008F8F80087
:10126000F8F80800203F003F003F200008F830C099
:101270000008F808203F200007183F00E010080889
:101280000810E0000F10202020100F0008F80808B8
:101290000808F000203F210101010000E0100808CB
:1012A0000810E0000F18242438504F0008F88888F0
:1012B00088887000203F2000030C302000708808D0
:1012C000080838000038202121221C00180808F8DE
:1012D000080818000000203F2000000008F808005F
:1012E0000008F808001F202020201F000878880030
:1012F00000C83808000007380E010000F80800F8A0
:101300000008F800033C0700073C03000818688049
:101310008068180820302C03032C30200838C800BF
:10132000C83808000000203F20000000100808080E
:10133000C83808002038262120201800000000FEB0
:10134000020202000000007F40404000000C30C05C
:1013500000000000000000010638C0000002020288
:10136000FE000000004040407F000000000004023A
:101370000202040000000000000000000000000065
:101380000000000080808080808080800002020455
:10139000000000000000000000000000000080804D
:1013A000808000000019242222223F2008F80080BB
:1013B00080000000003F112020110E00000000807E
:1013C00080800000000E112020201100000000800D
:1013D0008088F800000E112020103F20000080803F
:1013E00080800000001F222222221300008080F053
:1013F000888888180020203F20200000000080807E
:1014000080808000006B94949493600008F80080C2
:1014100080800000203F210000203F20008098981D
:10142000000000000020203F20200000000000807D
:101430009898000000C08080807F000008F80000BD
:1014400080808000203F24022D302000000808F812
:10145000000000000020203F2020000080808080CD
:1014600080808000203F20003F20003F808000805F
:1014700080800000203F210000203F20000080806D
:1014800080800000001F202020201F00808000801E
:101490008000000080FFA12020110E0000000080CD
:1014A00080808000000E112020A0FF8080808000BE
:1014B0008080800020203F212000010000008080EB
:1014C000808080000033242424241900008080E0E0
:1014D000808000000000001F2020000080800000AD
:1014E00000808000001F202020103F20808080008E
:1014F0000080808000010E3008060100808000809E
:10150000008080800F300C030C300F0000808000C2
:10151000808080000020312E0E31200080808000ED
:101520000080808080818E7018060100008080809D
:10153000808080000021302C22213000000000003B
:10154000807C020200000000003F404000000000DC
:10155000FF00000000000000FF0000000002027C0D
:10156000800000000040403F000000000006010134
:10157000020204040000000000000000101010FF30
:10158000109008888888FF8888880800000000007C
:101590000000000000000000000000000444827F02
:1015A00001808040432C102846818000000000000C
:1015B00000000000000000000000000040445465EE
:1015C000C664544400FC4444C4424000000000008F
:1015D00000000000000000000000000020124A820D
:1015E0007F020A92601F0000FF0000000000000060
:1015F0000000000000000000000000000000F8886B
:10160000888888FF88888888F8000000000000002B
:1016100000000000000000000000000000001F08A3
:101620000808087F888888889F80F00000000000F4
:1016300000000000000000000000000080828282A4
:10164000828282E2A2928A8682808000000000006C
:10165000000000000000000000000000000000008A
:101660000040807F0000000000000000000000003B
:101670000000000000000000000000002424A4FE80
:10168000A3220022CC0000FF0000000000000000A8
:10169000000000000000000000000000080601FF3C
:1016A00000010404040404FF020202000000000020
:1016B000000000000000000000000000101010FFFB
:1016C000109008888888FF8888880800000000003B
:1016D0000000000000000000000000000444827FC1
:1016E00001808040432C10284681800000000000CB
:1016F00000000000000000000000000000000010DA
:10170000206000FC0440A0980000000000000000E1
:1017100000000000000000000000000000000001C8
:10172000414949292525243F01000000000000000F
:10173000000000000000000000000000002020A0C9
:10174000A0A4A820209816F010101000000000009F
:101750000000000000000000000000000000001F6A
:101760000A2A7F00000F206F3000000000000000F8
:101770000000000000000000000000000000400821
:10178000180008F8A868687418000000000000003D
:101790000000000000000000000000000000300E0B
:1017A00022203E221E122E221F12000000000000E6
:1017B0000000000000000000000000000000000029
:1017C000F090B0F056D8284800000000000000005B
:1017D0000000000000000000000000000020100CCD
:1017E0004340402D131E2260404040000000000096
:1017F0000000000000000000000000000000008069
:101800008000000000000000000000000000000058
:101810000000000000000000000000000000003197
:101820003100000000000000000000000000000087
:10183000000000000000000000000000000C120C7E
:1018400000C07010080808081030000000000000F8
:101850000000000000000000000000000000000088
:10186000000F183020202020301C00000000000055
:101870000000000000000000000000000000400820
:101880000808F8A8A858487C0800000000000000DC
:10189000000000000000000000000000000038060A
:1018A00020202C3D23213F24232020000000000085
:1018B00000000000000000000000000000F0F80838
:1018C00088F8F000804020100800000000000000B0
:1018D00000000000000000000000000000000021E7
:1018E000180C0201001E3F21211E1E0000000000F6
:1018F00000000000000000000000000000000000E8
:1019000000000000000000000000000000000000D7
:1019100000000000000000000000000000000000C7
:1019200000000000000000000000000000000000B7
:1019300000000000000000000000000000000000A7
:101940000000000000000000000000000000000097
:101950000000000000000000000000000000103047
:101960003010000000000000000000000000000037
:10197000000000000000000000000000000080C027
:10198000E0F03010103070E0C0800000F0FEFFFF8B
:101990000700000000000003FFFFFFF83FFFFFFF0C
:1019A000C000000000000080FFFFFF3F00000307B1
:1019B0000F1E181010181C0F0703010000C0C0C034
:1019C000C0E0E0F0F0F8F8000000000000000000C7
:1019D0000000FFFFFFFFFF0000000000000000000C
:1019E0000000FFFFFFFFFF000000000000080808E4
:1019F0000C0C0F0F0F0F0F0C0C08080000C0E0F0CC
:101A00003018080808081838F0F0E08000070707C9
:101A1000060000000000C0F0FF7F3F0F00000080C4
:101A2000C0F0781C0E0703010000C0C0000E0F0FAD
:101A30000D0C0C0C0C0C0C0C0C0F0F0300C0E0F088
:101A4000B0180808081838F0F0E0C00000030303DD
:101A50000300404040E0F0BF9F1F070000C0E0E0EF
:101A6000E000000000000003FFFFFEF80001030794
:101A7000060C0808080C0C07070301000000000012
:101A800000000000C0E0F8FCFC000000000000C006
:101A9000E0381E070300FFFFFF000000080E0F0BD9
:101AA000080808080808FFFFFF08080800000000F1
:101AB000000000040404070707040404000000F009
:101AC000F030303030303030303030300000FCFF1B
:101AD000C3406020202060E0C0C080000080C1C101
:101AE000C100000000000001FFFFFFFE0003070F20
:101AF000091810101018181E0F070300000000C06E
:101B0000E0E03030101010F0F0E0C000F0FEFFFF19
:101B100083C06020202060E1C1C181003FFFFFFF42
:101B20008300000000000001FFFFFFFE0001070F1F
:101B30000F1C18101010181E0F07030080F0F07013
:101B400030303030303030B0F070300003030000FF
:101B5000000000C0F07C1F07010000000000000032
:101B600080F8FEFF030000000000000000000000FD
:101B70001F1F1F1F00000000000000000000C0E049
:101B8000E070301010103070E0E0C000000F3F7FB8
:101B9000FFF8F0E0C080C0E07F7F3F0FF0FCFEFE6A
:101BA0000F03010103070F1FFFFEFCF00103070FE6
:101BB0000E1810101010181C0F0F07010080C0E045
:101BC000F0301010103030E0E0C00000FEFFFFFFEA
:101BD0000000000000000081FFFFFFFC000307077A
:101BE0000F0C0808080C06E3FFFF7F0F00070F1F0C
:101BF0001F101010181C0F070301000000080889AF
:101C0000EA1888000404FC040404FC00000201003B
:101C1000FF0186402018074080403F000080808000
:101C200080808080808080808080808000000000B4
:101C3000000000000000000000000000000000089C
:101C40000808080808080808080800000010101014
:101C5000101010101010101010101010000004843C
:101C600084848484848484848484040000202020E8
:101C70002020202020202020202020200000FC04E4
:101C80000404FC040404FC040404FC0000007F2899
:101C9000242320202020212222227F000000024233
:101CA0004242C27E42424242C202020000404040E2
:101CB00040784740404040407F4040400020202046
:101CC00020202021222C2020202020200000402025
:101CD000100C0300000001020418600000808080E6
:101CE000808040FF40404020202020000000000075
:101CF0000000003F404040404040780000000000AD
:101D00000000FC0000007E800000000000008060F9
:101D100018070000000000030C3040800000101085
:101D20001010FF10101010F0000000000080402084
:101D3000180700000000003F40404078004040404D
:101D400040404040FF4040404040404000000000D4
:101D500000000000FF000000000000000000201054
:101D60000894A7444444A4940C000000000202011B
:101D70000120242444488810010102020000FE22B0
:101D800022FE4048487F4848487F484800807F02FC
:101D900082FF0000FF4949494949FF000000020253
:101DA000C2020202FE828282828202000040404021
:101DB0007F4040407F4040404040404000000000A5
:101DC0000000808080000000000000000000000093
:101DD00000030707070300000000000000000000E8
:101DE0000060F0F0F0600000000000000000000063
:101DF00000000000000000000000000000002018AB
:101E0000C744444444FC44444444040000040404DF
:101E10000704040404FF0404040404040000000094
:101E2000FE2222222222222222FE000000804030B6
:101E30000F02020202020242827F00000000000044
:101E4000FE82828282828282FE0000000000000008
:101E5000FF40404040404040FF00000000000000C4
:101E6000BE2A2A2AEA2A2A2A3E000000000044420A
:101E7000494949497F4949494941400000202020BA
:101E800020FF202020202020FF2020200000000014
:101E900000FF404040404040FF000000000004FFC1
:101EA000242424FF0400FE222222FE000088482F62
:101EB000090919AF48300F0242827F00DC1E000082
:101EC00000000020140000007A0A0000F01E00004C
:101ED00014000020040200008A0A00000000000034
:101EE000000000000000000000000000006CDC02A8
:04000005000000C136
:00000001FF
