:020000040000FA
:1000000010020020C10000003D030000FD020000BE
:10001000FFFFFFFFFFFFFFFFFFFFFFFFFFFFFFFFF0
:10002000FFFFFFFFFFFFFFFFFFFFFFFF4103000098
:10003000FFFFFFFFFFFFFFFF3F0300004303000040
:1000400003010000030100000301000003010000A0
:100050000301000003010000030100000301000090
:1000600003010000FFFFFFFF030100000301000088
:10007000030100000301000003010000FFFFFFFF78
:10008000FFFFFFFF03010000030100000301000068
:100090000301000003010000030100000301000050
:1000A0002D04000003010000030100000301000013
:1000B0000301000003010000030100000301000030
:1000C0001048804710488047104800471048016991
:1000D000002910D1416900290DD1816900290AD177
:1000E000C169002907D1BFF34F8F0A490A48C86088
:1000F000BFF34F8FFEE77047FEE7FEE7FEE7FEE740
:10010000FEE7FEE7CD000000450300001D010000F2
:100110000003084000ED00E00400FA0504488546AD
:1001200000F01EF80048004725070000C046C04602
:100130001002002030B50B46014600202022012489
:1001400009E00D46D5409D4205D31D469540491B0B
:100150002546954040191546521E002DF1DC30BD54
:10016000064C0125064E05E0E36807CC2B430C3C0A
:1001700098471034B442F7D3FFF7D4FF5C07000070
:100180007C070000F0B596460A461349C0004618A1
:1001900000230025FF2098402C46104216D0002056
:1001A000012199408C461146C1406746394206D02C
:1001B00087000F21B9400D437146B9400C43401CE4
:1001C0000828F0D33068A843204330600833361D38
:1001D000082BDEDDF0BD00002020024070B5184D78
:1001E0000446686B4607760F00F02EF8154920602C
:1001F000330000F059FA081405070714140E1114FF
:10020000606000E06160296A6068052909D34009DF
:1002100008E00120C003F3E77D200002F0E70020A2
:10022000EEE7C840A060A96A4903490F072902D038
:10023000C840E06070BD0321FFF77CFFF9E70000D4
:100240000080084000127A000C490868C869C20F93
:100250004868400AC007C00F0ED00948002A0BD1D9
:100260008869C00D0007000F00D110208969044A79
:100270004902890F5043C840704700000080084081
:1002800000127A001FB541090A4A89008A18002124
:100290002E2800D10221C006C00E1268032383401D
:1002A0001A40C24054186846FFF798FF029804B0FD
:1002B000E04010BD38800840F0B5084F7C6AFD6A08
:1002C0003E6B84438D439643002B02D004430D4381
:1002D00016437C62FD623E63F0BD00000080084072
:1002E000002A026801D00A4300E08A430260704796
:1002F000002A01D04162704781627047024801685C
:100300000029FCD0704700000400002070B50021D7
:100310000120800401230A46FFF7CEFF0324064D87
:10032000A403012221462846FFF7DAFF01222146D5
:100330002846FFF7DDFF70BD00400B407047704757
:1003400070477047F0B534491020C8603349012028
:1003500008603348016B40242143016331498A68B6
:10036000272AFCD1416A03229202914341624168EB
:100370000122D202114341608168C908C907FBD03C
:100380004168C908C900C91C4160416B4907490F50
:100390000329FAD1244B1968C908C900491C1960FE
:1003A0000025056241685E15B143416001689F15F3
:1003B0003943016041681A15114341608168890819
:1003C000C907FBD0016BA14301630168B943016018
:1003D0000321090681614168314341608168490810
:1003E000C907FBD01968C908C900891C19600562D2
:1003F0004168C908C900491C4160416B4907490F60
:100400000129FAD1186810210843186018680902F8
:1004100008431860F0BD00000081084000830840D8
:100420000080084000A106400002084070B5174C4B
:100430002021204600F040F8002825D0204600F07A
:100440008BF8C2B2124801210270124889030504D8
:10045000312A02D0302A08D011E00022FFF748FFED
:100460000DA000F017F9312106E00122FFF740FF4F
:100470000CA000F00FF93021284600F070F801219F
:100480004902204600F014F870BD0000000004404E
:100490000000002000400B406C656431206F6E0A44
:1004A000000000006C656431206F66660A00000081
:1004B00002690A40026170470069084000D00120CB
:1004C0007047000070B504460D46C8888988626888
:1004D00008432989184B1A40114308436989084386
:1004E000606001208007844206D11820FFF7CAFE11
:1004F0002968FFF71FFE60621048844206D11A2067
:10050000FFF7C0FE2968FFF715FE60620C488442C1
:1005100006D11C20FFF7B6FE2968FFF70BFE6062CC
:100520000848844206D11E20FFF7ACFE2968FFF779
:1005300001FE606270BD0000FCE0FFFF00000440AF
:100540000010004000100440002AC26801D00A4395
:1005500000E08A43C2607047006880B27047016063
:10056000704710238B404168002A01D0194300E0F6
:1005700099434160704700003EB521235B02194357
:100580000123FFF799FE062210210020FFF7FAFD54
:10059000062220210020FFF7F5FDE1204002009017
:1005A000FF200130694688800020C88008810C4CFB
:1005B00048812046FFF786FF012211462046FFF7BB
:1005C000C3FF012200212046FFF7CBFF0122114685
:1005D0002046FFF7C6FF0349A00108603EBD0000AA
:1005E0000000044000E100E03EB501239B031943F5
:1005F0009C1121430123FFF75FFE06220421002006
:10060000FFF7C0FD062208210020FFF7BBFDE12017
:100610004002009069468C800020C8800881488193
:10062000A4052046FFF74EFF012211462046FFF7A2
:100630008BFF012200212046FFF793FF0122114684
:100640002046FFF78EFF0249E01108603EBD000022
:1006500000E100E010B5FFF78FFFFFF7C5FF10BD09
:1006600070B50D460646002404E0304600F006F85A
:10067000641CE4B2295D0029F7D170BD10B50446B1
:10068000FFF76DFF80212046FFF716FF0028F9D005
:1006900010BD000010B5024A024900F021F810BD5B
:1006A000010700000800002030B47446641E25785D
:1006B000641CAB4200D21D46635D5B00E31830BC96
:1006C000184702E008C8121F08C1002AFAD1704773
:1006D0007047002001E001C1121F002AFBD17047C2
:1006E000F8B516460F460446002503E03946B047E4
:1006F000641C6D1C20780028F8D12846F8BD000045
:1007000070B5074D0446C1B22846FFF728FF802187
:100710002846FFF7D1FE0028F9D0204670BD000022
:1007200000000440FFF7F2FDFFF794FF02A10A4822
:10073000FFF796FFFEE700002D2D2D2D2D2D48549F
:100740003332205541525420544553542D2D2D2DD4
:100750002D2D2D0D0A000000000004407C07000034
:10076000000000200C000000C20600008807000006
:100770000C00002004020000D2060000000000006F
:08078000000000000000000071
:04000005000000C136
:00000001FF
