:020000040000FA
:1000000040040020C1000000251800008D0F0000F2
:10001000FFFFFFFFFFFFFFFFFFFFFFFFFFFFFFFFF0
:10002000FFFFFFFFFFFFFFFFFFFFFFFF951E000029
:10003000FFFFFFFFFFFFFFFF751E00003301000001
:1000400035010000350100003501000035010000D8
:1000500035010000350100003501000035010000C8
:1000600035010000FFFFFFFF3501000035010000F2
:10007000350100003501000035010000FFFFFFFFE2
:10008000FFFFFFFF350100003501000035010000D2
:100090003501000035010000350100006124000039
:1000A0003501000035010000350100003501000078
:1000B0003501000035010000350100003501000068
:1000C0001D4880471D4880471D4800471D4801695D
:1000D000002908D14169002905D18169002902D18F
:1000E000C169002909D01848C1680901090D002912
:1000F0000ED005290CD006290AD0BFF34F8F134824
:100100001349016013491248C860BFF34F8FFEE7DF
:100110000E4801680E48884200D070470E480F49CB
:1001200001600A480E4901607047FEE7FEE7FEE7FE
:10013000FEE7FEE7FEE70000CD0000009D20000086
:100140006501000000030840800108400000002015
:100150000400FA0500ED00E0008108400100000005
:10016000000000000448854600F062FB004800479C
:1001700071330000C046C0464004002030B50B4635
:10018000014600202022012409E00D46D5409D4271
:1001900005D31D469540491B2546954040191546F7
:1001A000521E002DF1DC30BD03460B439B0703D0EC
:1001B00009E008C9121F08C0042AFAD203E00B782C
:1001C0000370401C491C521EF9D27047D2B201E0A4
:1001D0000270401C491EFBD270470022F6E710B5A2
:1001E00013460A4604461946FFF7F0FF204610BDA5
:1001F000421E5378521C002BFBD10B781370491C04
:10020000521C002BF9D1704730B505462A460B46E3
:1002100010781C78521C5B1C002801D0A042F7D03B
:10022000002C03D0002802D06D1CEFE7284630BD1B
:10023000CAB2401E4178401C8A4202D00029F9D13E
:1002400000207047421C0178401C0029FBD1801A15
:10025000704710B5044600E0401C0378002BFBD12A
:1002600000E0401C521E04D30B78491C0370002B85
:10027000F7D100210170204610BD03460A780270B4
:10028000401C491C002AF9D11846704770B5064633
:1002900002F084FA046805460A220021304600F084
:1002A00097F92C6070BD0000F0B50746084658402D
:1002B00087B0C00F049048000E4659004008490816
:1002C000BC1A884105D2384631461E4617460B46B1
:1002D00002465800400810434DD0300D03904005B1
:1002E0005900400D490D0590401A0290402873DADC
:1002F00018030121000B090508430190049800929E
:10030000002806D01146019A4942002090410091F0
:100310000190029840210A1A0199009800F024F9EE
:1003200005460C466B4607CB00F03FF9C0197141FA
:10033000039A0E0D0023D71756401A467A401643EB
:1003400044D0049A002A2DD0029A012A039A15DC7F
:100350001205C01A914101263605001C7141D20FC9
:10036000059ED2070093019202962A46234600F08A
:1003700074F907B0F0BD38463146FAE71605234A4E
:100380000F46B218C01AB74101210905001C4F41A0
:1003900000187F41114618187941E20F10436D197A
:1003A000644113E0E2076D0815436408C207144373
:1003B000039A01261205C01A91413605001C7141AD
:1003C000CE07400830434908C01851412A46234609
:1003D00000F036F9CDE7FFE7049801224000C1178D
:1003E000121A00238B4104983146C417381AA141D0
:1003F000EEE730B40124E407634030BC54E730B486
:100400000124E407614030BC4EE700000000E0FF3B
:10041000F0B51FB488B00B99099800244840099999
:10042000C00F490049080991C0070B990090490085
:1004300049080B9109990898A64608431CD00B99C6
:100440000A98084318D0099801244000420D48003A
:10045000410D099824050003000B204309900B98D7
:100460000003000B20430B9050181C494018002239
:1004700001901446104605E0002001460DB0F0BD85
:10048000032801DA034600E003239C46C11A0AAEA2
:100490000AE05F0008ADED5B4F00F75B7D4300278E
:1004A000AA187C41491C5B1E6145F2DD410004AB8A
:1004B0005A522104120C0A43240C401C0828DFDB8A
:1004C000019802900099704601910090059B049A52
:1004D0000799069800F0C1F8D0E700000DFCFFFF77
:1004E00010B5002904DB0124E40740428C41214679
:1004F000002B04DB1C460123DB075242A341994237
:1005000000D1904210BD0000F0B51FB40646002097
:1005100082B005464024019100901BE001992246DB
:100520000F46304600F030F8049A059B801A994136
:1005300010D310461946224600F016F8361A8F419D
:100540000197224601200021009F00F00DF8381885
:100550004D4100902046641E0028DFDC019B00987E
:100560002946324607B0F0BD10B5202A04DB01460B
:10057000203A9140002010BD914020239C1A034650
:10058000E3401943904010BD10B5202A04DB084613
:10059000203AD040002110BD0B46D340D04020244B
:1005A000A21A91400843194610BD10B5202A06DB57
:1005B000CB170846203A1041C1170B4306E00B4603
:1005C0001341D0402024A21A91400843194610BD7F
:1005D000F7B5009C0F4600262578641C002D05D039
:1005E00000F038F90068405DC007F5D12B2D02D02E
:1005F0002D2D18D0641E39462046029A00F02EF99F
:10060000002F04D03968A14201D1009939607105E9
:10061000022400290BDA4042002803DD02F0BEF874
:100620000460A007FEBD012080020643E3E7002826
:10063000F8DA02F0B3F804600048FEBDFFFFFF7F68
:1006400010B5002B08DA0024401C614192185B4170
:100650001A4301D14008400010BDF0B51FB482B06C
:1006600005460C0003D0084602F072F802E002F0E2
:100670006FF820300246009021462846FFF774FFAD
:10068000049B059A04460F4618431143084314D0AF
:10069000184610431BD0009840210A1A18460599A5
:1006A000FFF772FF05460E46009A05990498FFF77A
:1006B0005BFF084305D0012004E02046394607B01F
:1006C000F0BD0020C11705430E432C43374300996A
:1006D0000E986305401A7905E40A00220C43FD0ACE
:1006E0000A3002D500200146E9E7010510196941E9
:1006F0000C9C0D9D00196941FFF7A2FFDFE7000088
:10070000F0B50C465C4085B0E40FE40703944C0060
:10071000002664085900944649080246029622437E
:1007200021D062460A431ED06200570D4A000E03D4
:100730002303550D012402462C492405781B1B0B6D
:10074000360B401823432643614600901C46501A3E
:10075000B44103D30098401C009002E09218009826
:100760005B41002803DA0020014605B0F0BD0020FF
:10077000012109050746864611E064461D46141B03
:10078000B54106D36546521BB341744607430C433B
:10079000A646CD0740084908284392185B41054604
:1007A0000D43EAD11046184313D060461946504015
:1007B0007140084306D06046101AB34106D20122A8
:1007C000002306E000220123DB0702E00122D243DE
:1007D0005310009874460105381C6141029C039D2A
:1007E00000196941FFF72CFFBFE70000FD0300007F
:1007F0004A0009030123090B1B0519430A4B10B5D5
:10080000520D9A4202DA0020014610BD064B3433E5
:100810009A4203DC9A1AFFF7B7FE10BD034BD218B9
:10082000FFF7A2FE10BD0000FF030000CDFBFFFF9D
:10083000064C0125064E05E0E36807CC2B430C3C33
:1008400098471034B442F7D3FFF790FC60350000AE
:1008500080350000004870475C350000F7B582B075
:10086000029C00272078641C15460197302802D08E
:10087000002D15D015E020780127641C782804D0BD
:10088000582802D0002D09D00BE0002D01D0102DEA
:1008900007D1002710252078641C02E0082500E01D
:1008A0000A250026009610E00099012769430818E0
:1008B000020C294680B2714300908E18380486429B
:1008C00001D3012001902078641C294600F019F81A
:1008D0000028E9DA0398002805D0002F01D0641E13
:1008E00000E0029C04600198002806D001F056FF49
:1008F00002210160C81E05B0F0BD00993004084314
:10090000F9E73A2800D23038202302469A43412A98
:1009100001D310463738884201D30020C0437047C6
:10092000F7B50B46009DED00154EAA1900200024D6
:100930000027002120E000240027FF258D401D40D6
:10094000002D17D000200FE01D46C54001268E4027
:100950003540002D07D086000F25B5402C4386007A
:10096000029DB5402F43401C0828EDD31568A543D0
:100970003D431560121D08310829DCDDFEBD000075
:100980002020024070B504461F48406B4607760F92
:1009900000F03EF82060330001F0F1FE0816050873
:1009A0000B16160E12162068606010E01748606083
:1009B0000DE0164860600AE00120C003606006E0B8
:1009C0007D200002606002E00020606000BF00BF88
:1009D0000D48056A052D02D36068400901E0606892
:1009E000E840A0600848806A072109040840050C17
:1009F000072D04D10321A068FFF7C0FB01E0A06828
:100A0000E840E06070BD00000080084000127A00FD
:100A1000F0B517480068FF2701373840040A14482A
:100A2000C069C50F124840687F003840460A002E52
:100A300001D10020F0BD002C01D10E4800E00D488E
:100A40000346012D01D11846F4E7094880690F27B4
:100A5000FF053840C10D002900D1102104488069EC
:100A600003277F053840420D18464843D040E1E750
:100A70000080084000127A007FB5044660118000B3
:100A80000A49461800252E2C00D10225E406E40E62
:100A90000321A14030680840E04045196846FFF74F
:100AA00071FF0298E84004B070BD00003880084033
:100AB0003FB50E4C606AE16A226B0446009DAC4370
:100AC00020460C46019DAC4321461446029DAC4392
:100AD0002246002B05D0009C2043019C2143029C10
:100AE0002243024C6062E16222633FBD0080084005
:100AF00010B5FF2101310348FFF76FFB00200249C9
:100B0000088010BD400100203000002070B505466F
:100B1000002400BF00F042F9002812D10EA11048B5
:100B2000FFF772FB0446002C0BD03A212046FFF75A
:100B30007FFB0446002C02D0641C204670BD0020C0
:100B4000FCE7052002F0A6FA2846691E8DB20028AF
:100B5000E0D100BFF2E700004950442C0000000043
:100B6000400100200EB5002000900190029001216C
:100B7000890400988843401800900123684607C8FC
:100B8000FFF796FF012251022B4800F023F90121C3
:100B90004902294800F01CF9FA2002F07BFA0121F1
:100BA0004902254800F056F9FF20F53002F072FAAC
:100BB000FFF79EFF21A1234801F033FD03E0FF2052
:100BC000F53002F067FA20A120A000F09BF8002881
:100BD000F5D120A11B4801F024FD03E0FF20F530F2
:100BE00002F058FA18A11EA000F08CF80028F5D1E8
:100BF0001FA1144801F015FD03E0FF20F53002F0BD
:100C000049FA1EA11FA000F07DF80028F5D126A109
:100C10000C4801F006FD03E0FF20F53002F03AFA3F
:100C200025A127A000F06EF80028F5D12FA10548D6
:100C300001F0F7FC0EBD000000400B40312E2041BA
:100C4000540D0A00000004404F4B000041540D0AAF
:100C500000000000322E2043574D4F44450D0A003E
:100C600041542B43574D4F44453D310D0A00000080
:100C7000332E2043574A41500D0A0000474F54205D
:100C80004950000041542B43574A41503D22736C58
:100C90006F772D77616C6B222C2279696E3132333C
:100CA0003435220D0A000000342E2043495053549D
:100CB0004152540D0A000000434F4E4E454354002C
:100CC00041542B43495053544152543D22544350B4
:100CD000222C223138332E3233302E34302E333919
:100CE000222C363030320D0A00000000352E20450F
:100CF00053503832363620496E6974204F4B0D0AF6
:100D000000000000F8B504460D46C8262046FFF74F
:100D100099FA87B23A462146F00601F0B6FC10E097
:100D200000F03CF8002809D129460948FFF76CFA81
:100D3000002803D0FFF7DCFE0020F8BD0A2002F0F7
:100D4000A9F93046711ECEB20028E9D10120F4E79E
:100D50004001002030B589B004460D46FFF7C8FEBB
:100D60002A4609A101A801F0C7FC0BA101A8FFF7C1
:100D7000C9FF002805D12A4621460120800701F03D
:100D800084FC09B030BD000041542B434950534509
:100D90004E443D25640D0A003E0000000A480088CC
:100DA000002801D1012070470748008807490988B9
:100DB000884203D1002004490880F4E702480088F3
:100DC000024908800120EEE73000002032000020B8
:100DD00081627047002A03D003680B43036002E07E
:100DE00003688B4303607047002A03D043680B43BA
:100DF000436002E043688B4343607047002A03D09E
:100E000003690B43036102E003698B43036170478D
:100E1000002A06D183680B438360C3688B43C36099
:100E20000EE0012A06D1C3680B43C36083688B437D
:100E3000836005E083688B438360C3688B43C36032
:100E400070470246D3690B40002B01D0012000E01F
:100E50000020704741627047002A01D0416200E0E3
:100E60008162704700B58BB0002000900190029025
:100E700001218904009888434018009009110198C5
:100E800088434018019089110298884340180290C5
:100E90000123684607C8FFF70BFE0422332109012E
:100EA0000220FFF73DFD0122332109013448FFF7FD
:100EB00091FFFF210131334801F0ACF903A801F0A3
:100EC0003BFA00200990C7216846C1832E498183DF
:100ED000FF210131018507A92A4801F041FA0021CB
:100EE00068460173012101740621C18101218174C9
:100EF00006220021234801F00DFA03A9214801F040
:100F0000A5F901216846017301740621C1810121FF
:100F1000817406221B4801F0FDF903A9194801F06C
:100F200095F9022168460173012101740621C181EE
:100F30000121817406220221124801F0EBF903A974
:100F4000104801F083F903216846017301210174FF
:100F50000621C1810121817406220321094801F083
:100F6000D9F903A9074801F071F901220F210548B9
:100F700001F061F90121034801F051F90BB000BD06
:100F800000400B4000E00640BF12000000BF0248D6
:100F900000680028FBD070470000002010B501F069
:100FA00083FA01F0FDF900F021F802F015F9FFF7DE
:100FB00059FF2D2000F0B2FF2D2000F0DFFF2D2083
:100FC00001F00CF82D2001F039F802A1064801F0DB
:100FD00028FB10BD20486172647761726520696EDC
:100FE0006974204F4B0D0A00000004400EB500202C
:100FF00000900190029001218904009888434018D4
:1010000000900123684607C8FFF752FD0122032123
:1010100089030548FFF7DEFE012203218903024808
:10102000FFF71AFF0EBD000000400B4010B504464C
:10103000207B012802D1206802F070F90020206096
:101040006060A060207310BD10B50246002301232C
:101050000EE05006400E0870D209002A05D008782C
:10106000802420430870491C01E0184610BD5B1C19
:10107000042BEEDD0020C043F8E770B504460E46B1
:1010800000252068002814D101202073304602F08A
:10109000EDF92060206800281CD000206060A66068
:1010A00003E00020216848556D1CA068A842F8D8CC
:1010B00010E00220207303E00020216848556D1CD9
:1010C000A068A842F8D800206060A068B04201D2B1
:1010D0000020206070BD0000F7B588B00C461746B0
:1010E0000898FFF7AFF885B22046FFF7ABF880B25B
:1010F000079000200690E81D02F0B8F90646002E81
:1011000002D101200BB0F0BDE91D3046FFF765F8B4
:10111000062212A13046FFF747F82A4630460899C2
:10112000FFF797F82046FFF78DF805900120002182
:101130000091039701910290224631460A20059BB7
:1011400000F084F9002801D1069001E0012006900A
:10115000304602F0E3F80698D4E700002463727387
:10116000702F0000FFB583B0119C00250020029075
:101170000F2701900598FFF765F800B200900598D9
:10118000002802D1012007B0F0BD0098801C38185B
:1011900087B20C98002801D0022005430E98002841
:1011A0000FD0042005430E98FFF74CF8C0B2029010
:1011B0000F98FFF747F801460298001D0818C0195C
:1011C00087B20D98002804D0012804D0022808D145
:1011D00004E000BF07E00C20054304E014200543B1
:1011E00001E00220CFE700BF1098002801D02420A2
:1011F00005430398002802D00498002801D1032059
:10120000C1E7C02005430398FFF71CF80646049881
:10121000FFF718F83018001DC01987B2394620466C
:10122000FFF72BFF2068002805D183A1864801F035
:101230001DFA0420A7E739462068FEF7CEFF1021EB
:101240006268501C60602068815463682268D1180D
:10125000781FFFF7F9FE00B201900198002804DA28
:101260002046FFF7E3FE05208DE761680198081826
:10127000606000216268501C606020688154042115
:101280006268501C6060206881544D216268501C67
:1012900060602068815451216268501C6060206841
:1012A000815454216268501C6060206881546268D7
:1012B000501C60602068815404216268501C60608A
:1012C000206881546168481C606020684554FF2193
:1012D00009020698084001126268501C606020688C
:1012E00081540698C1B26268501C606020688154C5
:1012F000FF2109020098084001126268501C6060DA
:10130000206881540098C1B26268501C60602068F7
:101310008154626821688818009A0599FEF799FF40
:1013200061680098081860600420284000283ED0BA
:1013300000260F98002801D142A00F900E98FEF7CA
:1013400081FF86B2FF200002304001126268501C0B
:101350006060206881546268501C60602068865418
:1013600062682168881832460E99FEF772FF60683D
:10137000801960600F98FEF765FF86B2FF200002BB
:10138000304001126268501C6060206881546268BD
:10139000501C606020688654626821688818324654
:1013A0000F99FEF756FF60688019606000BF8020CB
:1013B000284000281CD00398FEF744FF86B2FF2087
:1013C0000002304001126268501C60602068815445
:1013D0006268501C606020688654626821688818C2
:1013E00032460399FEF735FF60688019606000BFE0
:1013F0004020284000281CD00498FEF723FF86B226
:10140000FF200002304001126268501C60602068BA
:1014100081546268501C606020688654626821684C
:10142000881832460499FEF714FF606880196060DE
:1014300000BF0020A7E60000B7D6C5E4C4DAB4E6D2
:10144000CAA7B0DC0000000000000440FFB585B072
:101450001746119C0025002600200490039002905E
:101460000598002802D1012009B0F0BD00260AE04D
:101470000698805D232803D00698805D2B2801D133
:101480000220F1E7761C0698805D0028F0D130211B
:101490000298084302900F98002803D00121029877
:1014A0000843029008983018851C0E98002804D034
:1014B000012805D002280FD108E0029802900DE023
:1014C0000221029808430290AD1C07E00421029813
:1014D00008430290AD1C01E00320C5E700BF002FC8
:1014E00035D03878022824D10020019000BF01981F
:1014F000411C0191385C7D28F9D10198C01E0190F2
:101500000198C01D049004990898401A0190E81CA5
:10151000019A811A2046FFF7B0FD2068002801D10A
:101520000420A1E7EA1C019BD11A2068FEF755FEB2
:101530001AE0691D2046FFF7A0FD2068002801D1B0
:10154000042091E7691D2068FEF747FE0CE0691D45
:101550002046FFF792FD2068002801D1042083E790
:10156000691D2068FEF739FE02996268501C6060B0
:10157000206881546268206881182846FFF764FD5E
:1015800003900398002804DA2046FFF74FFD05205A
:101590006AE76168039808186060FF200002304025
:1015A000010A6268501C6060206881546268501CA7
:1015B00060602068865462682168881832460699FF
:1015C000FEF747FE6068801960600E98002810D012
:1015D000FF2109020598084001126268501C6060F2
:1015E000206881540598C1B26268501C6060206810
:1015F0008154002F19D0387802280BD162682168F5
:1016000088183946049AFEF7CFFD616804980818D7
:1016100060600AE06268216888183946089AFEF717
:10162000C3FD616808980818606000201CE700008E
:10163000F0B585B007460D461E460A9C01200021E4
:101640000090EB1C0A460394019102900FA10A201E
:10165000FFF7FCFE002813D16168481C6060206819
:101660004654FF200002284001126268501C60604E
:10167000206881546268501C60602068855402E0D4
:10168000012005B0F0BD0020FBE7000024647000DD
:10169000F0B504460D4626460123002010600021C7
:1016A00016E0775C7F067F0E5F431068C0191060FC
:1016B000705C80273840002801D1481CF0BDDB0158
:1016C00001204005834202D30120C043F6E7491CB4
:1016D000A942E6DB0020C043F0E7FFB581B00C462D
:1016E00015461E462F210198801DFEF7A1FD0746D5
:1016F00000200090002F02D1012005B0F0BD7F1C1A
:101700006A4604210198401CFFF7C2FF252001F022
:10171000ADFE20602068002801D10220EDE72521E0
:101720002068FEF75AFD242239462068FEF73CFD6A
:10173000243700982C3830803188481C01F096FE00
:1017400028602868002804D1206801F0E7FD032004
:10175000D3E73288511C2868FEF73FFD32883946AE
:101760002868FEF721FD0020C7E7014648780228D7
:1017700001D0012070478878002802D0887801289D
:1017800001D1C878F6E7FF20F4E70146487802283F
:1017900001D0012070478878002804D1C8780A2831
:1017A00001D10020F6E70120F4E70000F8B5044677
:1017B000FF2720780511012D01DB0E2D01DD3846B4
:1017C000F8BD032D26D1002000906A460421601C3C
:1017D000FFF75EFF0019461C0098022804D320780A
:1017E000C007C00F002801D0FF20E9E730780002D1
:1017F00071780843801C0099884201D9FF20DFE7F7
:1018000006A1B01CFEF700FD002801D00F2700E064
:10181000032700E02F463846D2E7000024637265B4
:10182000710000007047000030B58BB000200790B9
:10183000089009900A9001252BA32EA22FA131A078
:1018400000F04AFF07A80021029103910491009142
:101850002B0225A20191059026A128A0FFF782FC6A
:1018600000283BD1089A91B20798FFF773FAFA2043
:10187000FFF74CF90446002C2CD02046FFF796FFCA
:10188000022827D12046FFF770FF030000F077FF02
:101890000604090D1115191D26A000F01DFF0025D5
:1018A00017E029A000F018FF13E02EA000F014FFAD
:1018B0000FE035A000F010FF0BE03BA000F00CFFA4
:1018C00007E042A000F008FF03E04BA000F004FF97
:1018D00000BF00BF07A8FFF7A9FB02E04DA000F082
:1018E000FBFE28460BB030BD39313936343336343F
:1018F0003600000074656D7000000000353030392E
:10190000333200004F6E654E65745F4465764C69F6
:101910006E6B0D0A50524F49443A2025732C0941F1
:101920005549463A2025732C0944455649443A25E1
:10193000730D0A00546970733A09C1ACBDD3B3C9C1
:10194000B9A60D0A000000005741524E3A09C1AC39
:10195000BDD3CAA7B0DCA3BAD0ADD2E9B4EDCEF303
:101960000D0A00005741524E3A09C1ACBDD3CAA777
:10197000B0DCA3BAB7C7B7A8B5C4636C69656E74A9
:1019800069640D0A000000005741524E3A09C1AC8B
:10199000BDD3CAA7B0DCA3BAB7FECEF1C6F7CAA7BB
:1019A000B0DC0D0A000000005741524E3A09C1ACAC
:1019B000BDD3CAA7B0DCA3BAD3C3BBA7C3FBBBF2DA
:1019C000C3DCC2EBB4EDCEF30D0A00005741524E1A
:1019D0003A09C1ACBDD3CAA7B0DCA3BAB7C7B7A890
:1019E000C1B4BDD328B1C8C8E7746F6B656EB7C703
:1019F000B7A8290D0A0000004552523A09C1ACBDF2
:101A0000D3CAA7B0DCA3BACEB4D6AAB4EDCEF30D38
:101A10000A0000005741524E3A094D5154545F504C
:101A200061636B6574436F6E6E65637420466169B4
:101A30006C65640D0A00000010B588B004462021D2
:101A40006846FEF7CAFB17A12046FEF716FC2021C8
:101A50006846FEF7C2FB144803781448027814A1C4
:101A6000684600F049FE69462046FEF7C1FB20218A
:101A70006846FEF7B2FB134803781348027813A1B7
:101A8000684600F039FE69462046FEF7B1FB214664
:101A900012A000F021FE2046FEF7D4FBC0B208B031
:101AA00010BD00002C3B0000190000201800002091
:101AB00054656D707265747572652C25642E25648D
:101AC0003B0000001B0000201A00002048756D69D3
:101AD000646974792C25642E25643B006275665F09
:101AE0006D7174743D25730D0A000000F1B58AB064
:101AF00000200690079008900990059004900390AC
:101B000000250026002400270A98FFF74FFE05460F
:101B1000042D70D00F2D6FD103AB05AA04A90A982C
:101B2000FFF7DBFD0646002E67D16846838961A07A
:101B3000059A049900F0D0FD67A10598FEF764FBB3
:101B4000002806D00022012189036548FFF784F9A7
:101B50005DE064A10598FEF757FB002805D001223F
:101B600091035F48FFF778F951E061A10598FEF70E
:101B70004BFB002803D0002000F0D0F947E05FA124
:101B80000598FEF741FB002803D02D2000F0C6F990
:101B90003DE05EA10598FEF737FB002803D000204A
:101BA00000F0ECF933E05CA10598FEF72DFB00286E
:101BB00003D02D2000F0E2F929E05BA10598FEF7A3
:101BC00023FB002803D0002000F008FA1FE059A1F1
:101BD0000598FEF719FB002803D02D2000F0FEF930
:101BE00015E058A10598FEF70FFB002806D000204D
:101BF00000F024FA0BE01EE026E01BE054A105985B
:101C0000FEF702FB002802D02D2000F017FA06AAEA
:101C100005990498FFF760FA00280BD150A15648A7
:101C200000F0FFFC079A91B20698FFF793F806A818
:101C3000FFF7FCF90BE00A98FFF7A7FD002802D197
:101C40004EA000F049FD02E00026F64300BF00BFB1
:101C5000FEF74EFF701C002801D10BB0F0BD7D21B6
:101C60000598FEF7E5FA0446002C17D0701C0028F2
:101C700014D0641C05E0227838467F1C69460A545B
:101C8000641C2078302802DB20783928F3DD00201E
:101C90006946C8556846FEF7F9FA07460F2D01D088
:101CA000032D05D1049801F039FB059801F036FBAE
:101CB00000BFD2E7636D6469643A2025732C2072FB
:101CC00065713A2025732C207265715F6C656E3AE0
:101CD0002025640D0A0000006C656431206F6E00E1
:101CE00000400B406C656431206F666600000000A8
:101CF000736572766F31206F70656E0073657276F2
:101D00006F3120636C6F736500000000736572763D
:101D10006F32206F70656E00736572766F3220636C
:101D20006C6F736500000000736572766F33206F0F
:101D300070656E00736572766F3320636C6F7365C8
:101D400000000000736572766F34206F70656E005E
:101D5000736572766F3420636C6F736500000000EA
:101D6000546970733A0953656E6420436D6452651B
:101D700073700D0A00000000000004405469707385
:101D80003A094D515454205075626C697368205360
:101D9000656E64204F4B0D0A0000000030B5A5B001
:101DA00000202190229023902490002400251AA046
:101DB00000F092FC802101A8FEF70FFA01A8FFF7BE
:101DC0003BFE0446002C25D021A8052300222146F5
:101DD000009019A0FFF72CFC002818D108E001A8FA
:101DE000415D229A501C229021988154681C05B2B2
:101DF000A542F4DB229A91B22198FEF7ABFF11A025
:101E0000229900F069FC21A8FFF710F902E011A067
:101E100000F062FC25B030BD546970733A094F6E12
:101E2000654E65745F53656E64446174612D4D51F8
:101E300054540D0A00000000393139363433363439
:101E40003600000053656E64202564204279746575
:101E5000730D0A005741524E3A094544505F4E6592
:101E600077427566666572204661696C65640D0A25
:101E70000000000070470000C1B2054A116000BFB9
:101E800003490969FF22013211400029F8D0704747
:101E90000000044070470000042806D10649096983
:101EA00004221143044A116105E00349096904222F
:101EB0009143014A1161704700E000E0002803D11E
:101EC0000021094A91610EE0012806D106490969FD
:101ED00001221143044A116105E0034909694908D7
:101EE0004900014A1161704700E000E0002806D077
:101EF0000649096902221143044A116105E00349B8
:101F0000096902229143014A1161704700E000E033
:101F1000014948617047000000E000E010B5044648
:101F20005A2C15D004DC002C1ED02D2C22D115E00B
:101F3000872C07D0B42C1DD1AF2200210E4800F011
:101F400007FA17E0B42200210B4800F001FA11E073
:101F5000B9220021084800F0FBF90BE0BE22002165
:101F6000054800F0F5F905E0C3220021024800F021
:101F7000EFF900BF00BF10BD00E0064010B50446F9
:101F80005A2C15D004DC002C1ED02D2C22D115E0AB
:101F9000872C07D0B42C1DD1AF2201210E4800F0B0
:101FA000D7F917E0B42201210B4800F0D1F911E074
:101FB000B9220121084800F0CBF90BE0BE22012133
:101FC000054800F0C5F905E0C3220121024800F0F0
:101FD000BFF900BF00BF10BD00E0064010B50446C9
:101FE0005A2C15D004DC002C1ED02D2C22D115E04B
:101FF000872C07D0B42C1DD1AF2202210E4800F04F
:10200000A7F917E0B42202210B4800F0A1F911E072
:10201000B9220221084800F09BF90BE0BE22022100
:10202000054800F095F905E0C3220221024800F0BE
:102030008FF900BF00BF10BD00E0064010B5044698
:102040005A2C15D004DC002C1ED02D2C22D115E0EA
:10205000872C07D0B42C1DD1AF2203210E4800F0ED
:1020600077F917E0B42203210B4800F071F911E071
:10207000B9220321084800F06BF90BE0BE220321CE
:10208000054800F065F905E0C3220321024800F08D
:102090005FF900BF00BF10BD00E0064010205849A6
:1020A000C8600120574908605748006B4021084329
:1020B0005549086300BF554880682728FBD103E0D5
:1020C00001204002514948605048406801214902BE
:1020D00008408842F4D102E000204C4948604B4857
:1020E00040680121490208400028F5D145490860AF
:1020F0004548406A032189028843434948620846AB
:1021000040680121C90208433F49486000BF3E487A
:1021100080680007C00F0028F9D03B484068C0081D
:10212000C000C01C3849486000BF3748406B4007BA
:10213000400F0328F9D136480068C008C000401C91
:102140003349086000203049086208464068491554
:1021500088432D49486008460068891508432A4984
:10216000086008464068091508432749486000BFD1
:10217000254880684007C00F0028F9D02248006B2E
:102180004021884320490863084600688915884330
:102190001D4908600320000688610846406849150B
:1021A00008431949486000BF174880688007C00F7E
:1021B0000028F9D016480068C008C000801C1449E7
:1021C000086000201049086208464068C008C00046
:1021D000401C486000BF0C48406B4007400F01287E
:1021E000F9D10B48006810210843094908600846E6
:1021F0000068012109030843054908607047000091
:1022000000810840008308400080084000A106408B
:1022100000020840CA43C267BFF34F8F70470029CE
:1022200004D0026901231A43026103E002695208E3
:10223000520002617047002A03D0436F0B4343678B
:1022400002E0436F8B43436770470000FCB50D7895
:10225000AD0006464036AF190D78AD005036AD19C9
:1022600001950D78AD001036AD1900950D786D060D
:102270002A0E274DA84203D103259540EC4302E0E6
:1022800001259540EC43224DA84200D100BF056DC9
:1022900025400565436D23401D4DA84206D18D792B
:1022A000CE797600354395402B4302E08D799540F9
:1022B0002B434365164DA84209D1C56E25402B46D8
:1022C0000D7A4E7A7600354395402B43C3663D68C0
:1022D000FF260836B5433D603D684E8835433D6076
:1022E0004E89019D2E608E89009D2E60084DA8426A
:1022F00008D10D794E79760035439540066D35430A
:10230000056504E0056D0E79964035430565FCBD15
:1023100000C0024070B58D00044640342B19046D96
:102320004E000125B540AC4304651C68FF25083507
:10233000AC4314431C6070BD0021017041800171E9
:1023400041718171C1710172417241818181704716
:1023500030B58D00044690342B191A6030BD000052
:102360004B88882213500B88842213500268032361
:102370001B049A430260026801231B069A43026011
:1023800002688B681A430260044A904202D10B79BA
:102390008C2213508A8982677047000000C0024077
:1023A00000B587B02A482B490860002001900290B0
:1023B0000390012189030298884340180290890004
:1023C00001988843401801900912029888434018E8
:1023D0000290012301A807C8FEF76AFB002208212A
:1023E0001D48FEF715FD062204210020FEF798FA8D
:1023F000062208210020FEF793FA002004900590A1
:102400000690E12040020490FF210131684681825C
:102410000021C1820183418304A90120800700F0CB
:102420009FF81720012181400C4A116000BF012252
:102430001146900700F0DAF801220021900700F021
:10244000E1F801221146900700F0DCF807B000BD6A
:10245000C00000200C00002000000B4000E100E064
:1024600010B52021480600F071F8002817D00C485C
:102470000088FF2802D90020094908800120800730
:102480000068C1B2064802880088401C044B1880CE
:102490000448815401214902480500F053F810BD59
:1024A000300000204001002000B587B000200490DB
:1024B00005900690012189030598884340180590EE
:1024C00089000498884340180490C91105988843EE
:1024D00040180590012304A807C8FEF7E9FA002276
:1024E00020211648FEF794FC062210210020FEF75A
:1024F00017FA062220210020FEF712FA0020019090
:1025000002900390E12040020190FF2101316846D2
:102510000181002141818181C18101A9084800F028
:102520001FF801220021064800F06CF80122114634
:10253000034800F067F807B000BD000000000B4042
:102540000000044002690A400261704702461069B7
:102550000840002801D0012070470020FCE700005F
:1025600070B504460D4660681C490840E988084378
:10257000A9880843298908436989084360600120C4
:102580008007844207D11820FEF776FA06462968AC
:10259000FDF7F4FD60621248844207D11A20FEF76D
:1025A0006BFA06462968FDF7E9FD60620D48844232
:1025B00007D11C20FEF760FA06462968FDF7DEFD0C
:1025C00060620948844207D11E20FEF755FA06468C
:1025D0002968FDF7D3FD606270BD0000FCE0FFFFDD
:1025E000000004400010004000100440002A03D006
:1025F000C3680B43C36002E0C3688B43C36070478A
:102600000160704710B5002A05D0436810248C4043
:102610002343436004E0436810248C40A343436099
:1026200010BD0FB430B5CBB0054601AC50A800903A
:10263000FF21293101A8009B4F9A00F071F800207A
:1026400000900BE02178641C2846FFF7D9FF00BFFB
:1026500080212846FFF77AFF0028F9D0207800284B
:10266000F0D14BB030BC08BC04B0184770B506467A
:102670000C46002505E0615D304600F01DF8681C41
:10268000C5B2605D0028F6D170BDF8B507460C46AE
:10269000154600260DE02178641C3846FFF7B0FF90
:1026A00000BF80213846FFF751FF0028F9D0701C89
:1026B00086B2AE42EFDBF8BD70B504460D46294642
:1026C0002046FFF79DFF00BF80212046FFF73EFF19
:1026D0000028F9D070BD00000FB410B503A9044B59
:1026E000044A029800F028F910BC08BC04B018474E
:1026F0000F330000280000200FB410B504A9074BC9
:1027000002AA039800F018F9044602A9002000F07C
:10271000BCFC204610BC08BC04B018478B3000003D
:102720007CB51D4616460C0001D0611E00E000215C
:1027300001910090054B6A462946304600F0FCF8AE
:10274000002C02D0009A002111707CBD7530000071
:102750002021020C01D010211046020A01D010469F
:102760000839020901D01046091F820801D010461D
:10277000891E420801D0881E7047081A704730B47D
:102780007446641E2578641CAB4204D3635D5B0011
:10279000E31830BC18471D46F8E7000000487047B2
:1027A0003C00002002E008C8121F08C1002AFAD12C
:1027B00070477047002001E001C1121F002AFBD1C1
:1027C00070470000F0B51FB486B00998089A030D51
:1027D0000021024314D05148514A1818504305149F
:1027E0001198012810981AD0281A401C00264D4F25
:1027F0004D49009601910490002812DA444211E0FC
:102800001198012449A3012801D11098C1430698C9
:10281000119A84600360C26041600BB0F0BD404219
:10282000E4E70446210500203F4A001C5141039182
:10283000029012E0E00707D032463B46019900982B
:10284000FDF7E6FD0191009032463B4610461946E1
:10285000FDF7DEFD06460F466410002CEAD1049811
:10286000039B0028029A0999089806DAFDF7D0FD23
:10287000019B009AFDF7CCFD05E0FDF741FF019BB0
:10288000009AFDF73DFF04460E460022284BFDF757
:1028900027FE03D80020C043014607E00022254B55
:1028A00020463146FDF700FDFDF7A2FF102409E0A8
:1028B000002C0ADB0A220023FDF726FE079B30329C
:1028C0001A55641E02460A43F2D11122641C079B6A
:1028D000121B1C19119B012B03D0012308430ED19D
:1028E0000AE0084304D0112010900020119077E7EF
:1028F0001098151A6D1E0BE01098824202DD00231D
:102900006D1C03E0824201DA00236D1E002BEED025
:10291000069811998260C16030C07EE701FCFFFF1C
:10292000104D0000000014400000F03F3000000097
:102930000000F0430000E03FFFB597B006460025D9
:102940001BE2252876D100242746F749049400E0AD
:102950000443761C32780120203A90400842F7D197
:1029600030782A280ED002223078014630390929E1
:1029700016D804990A235943303940181443761C59
:102980000490F1E7189802C804911890002904DA1D
:102990000120400304434842049002200443761C73
:1029A00030782E2814D1042004437078761C2A280D
:1029B00009D11898761C80C8189009E00A214F4365
:1029C000303FC719761C3078014630390929F5D9CE
:1029D00030786C2810D006DC4C281AD068280ED02D
:1029E0006A2817D104E0742813D07A2812D110E095
:1029F0000120400504430CE00121090501E0032109
:102A000009050C437178814203D101200005241887
:102A1000761C761C307866280BD013DC58287DD0C5
:102A200009DC00287BD04528F6D04628F4D047287A
:102A30001AD1A9E118E0632835D0642870D0652840
:102A400012D1A1E170286CD008DC6728F1D0692888
:102A50007DD06E280DD06F2806D1BCE073282ED013
:102A6000752873D0782859D01A9A199990476D1CF7
:102A700082E16002400F022809D003280DD004280B
:102A8000189801680DD00D60001D189074E1189819
:102A9000EA1701680D604A60F6E7189801680D8032
:102AA000F2E70D70F0E718986A4601781172001D80
:102AB00018900020507202A80090012005E018989C
:102AC00002C8189000200091C04361070ED5002174
:102AD00001E00199491C0191B94213DA8142F8DB06
:102AE000019A0099895C0029F3D10BE0002101E0F3
:102AF0000199491C01918142FADB019A0099895C94
:102B00000029F5D1019904981A9B471A21463846A5
:102B1000199A00F099FA4019019903E051E030E167
:102B200015E050E0451807E0009800990078491C2E
:102B300000911A9A199990470198401E0190401CE3
:102B4000F2D1214638461A9B199A12E137E00A2041
:102B50000021009001916002410F022907D0189ACC
:102B600001CA1892C2179446032908D00AE018989F
:102B7000C01DC108C90005C91891944607E000B2FC
:102B8000C2179446042902D140B2C1178C460022D4
:102B90006146944506DA0A460021404291418C463E
:102BA0002D2102E0210504D52B216A461173012154
:102BB00003E0E10701D02021F7E7029156E00A2067
:102BC0000AE0102008E010200090002104200443B7
:102BD0000191082703E00820002101910090600284
:102BE000410F022907D0189A01CA18920022944670
:102BF000032908D008E01898C01DC108C90005C9FC
:102C00001891944603E080B2042900D1C0B200219B
:102C1000029121072AD531780D91702906D0009AAA
:102C20001021019B4A401A4305D00EE040216A461C
:102C30001173012108E06146014306D030216A4644
:102C400011730D99517302210291009A0821019B81
:102C50004A401A430AD16146014301D1610705D5B3
:102C600030216A46117301217F1E02913178582963
:102C700004D02EA10E910DA90D910DE030A1F9E720
:102C80006146019B009AFDF73FFC0E9B8C469B5CC6
:102C90000D9A521E0D92137061460143F0D10D98AA
:102CA00005A9081A20300190600703D5012000040F
:102CB000844300E001270198874201DD381A00E0D3
:102CC0000020019900904118029809180498401AB0
:102CD0000490E00306D421461A9B199A049800F048
:102CE000B3F94519002706E003A81A9AC05D19999F
:102CF00090476D1C7F1C02988742F5DBE0030CD5E2
:102D000021461A9B199A049800F09EF9451904E08F
:102D10001A9A3020199990476D1C0099481E00900E
:102D20000029F5DC1FE000000928010030313233B2
:102D300034353637383961626364656600000000F7
:102D400030313233343536373839414243444546E1
:102D5000000000000D980D990078491C0D911A9AF9
:102D6000199990476D1C0199481E01900029F1DCCA
:102D70004DE100F059F94519761C3078002800D053
:102D8000DFE528461BB0F0BD600700D40627189881
:102D9000C01DC108C90048680A680831C30FDB07B5
:102DA0001891190001D09CA108E0210501D59BA133
:102DB00004E0E10701D09AA100E09AA1430010913C
:102DC00030785B0865280CD006DC452809D04628F9
:102DD0001DD0472841D141E0662818D067283CD152
:102DE0003CE00021112F01DB112000E0781C019153
:102DF000009008A911A8FFF7E5FC1399059100219F
:102E0000119A15927F1C12980197009150E00120B1
:102E1000C00703900120019008A9009711A8FFF7AF
:102E2000D1FC139A149905920022119B00921298DA
:102E30001593059A0192002901D0104602E0791CF1
:102E400040180190381A01D5019804E04042401E14
:102E50000090781C0190C01B029043E0012F00DA23
:102E600001270021112F01DD112000E038460191DA
:102E7000009008A911A8FFF7A5FC13990591119AD4
:102E80000021129815920091019721070CD4059901
:102E9000B94201DB019900E00191012904DD159A95
:102EA000491E515C302906D0B84201DA011D05DA0D
:102EB0000121029115E00199491EEDE7002805DC8A
:102EC0000099411800910199091A03E0019A411CE7
:102ED000914200DD01910099401A401C02900120AE
:102EE000C0070390200706D402990198814202DBB3
:102EF0000020C043029000206946C87707AF012137
:102F000003980337C907884224D0022011902B2050
:102F10001290039800280CDA404203902D20129062
:102F200007E00A210398FDF729F930317F1E03904D
:102F300039701199481E11900029F2DC039800287D
:102F4000EFD1791E12980870307820210840453062
:102F5000BF1E387006A8C01BC01D039010980078D3
:102F6000002800D00120019941180298C0170918C3
:102F7000039809180498401A401E0490E00306D4F0
:102F800021461A9B199A049800F05EF8451910988A
:102F90000078002803D01A9A199990476D1CE00315
:102FA00024D521461A9B199A049800F04DF845192A
:102FB0001CE00098002807DB00990598884203DD93
:102FC0001598405C199901E0199930201A9A904798
:102FD00000986D1C401C00900298401E0290002832
:102FE00004D11A9A2E20199990476D1C0199481EF8
:102FF00001900029DDDC05E038781A9A7F1C1999C8
:1030000090476D1C0399481E03900029F4DC21466B
:103010001A9B199A0498ACE62D0000002B000000C2
:103020002000000000000000F8B5044600251E4600
:103030001746880404D405E039462020B0476D1CAB
:10304000641EF9D52846F8BDFFB50446002581B0B9
:103050001E46C80301D5302700E02027880404D588
:1030600005E038460399B0476D1C641EF9D5284623
:1030700005B0F0BD4A68002A06D00A68531C0B60F0
:1030800010704868401E486070470A68531C0B6007
:103090001070704710B5044603E07D20C00000F0BA
:1030A00007F82046611E8CB20028F6D110BD000042
:1030B00070B504460420C043FEF7EEFE13490968CC
:1030C000C8081349FDF75AF80646FEF721FF00200D
:1030D000FEF70CFF0020FEF7F1FE0120FEF7EEFEEA
:1030E000002508E000BF0B480069012109040840E1
:1030F0000028F8D06D1CA542F4D30120C043FEF790
:10310000DDFE0020FEF7DAFE70BD00002400002086
:1031100040420F0000E000E010B500F0D5F80028B4
:1031200038D000F09FF81C49087000F09BF81B494C
:10313000087000F097F81A49087000F093F81949E0
:10314000087000F08FF81849087000F07DF8012031
:1031500000F0A8F8124800781249097840180E4982
:10316000097840180D4909784018C4B20E48007813
:1031700084420FD1084800780C490870074800784D
:103180000B490870064800780A490870054800781D
:103190000949087010BD00001E0000201F0000201B
:1031A0001C0000201D000020200000201A0000202C
:1031B0001B000020180000201900002010B501217C
:1031C0000448FDF73EFE002801D0012010BD00207C
:1031D000FCE7000000000B400EB5002000900190BD
:1031E000029001210904009888434018009089103A
:1031F00001988843401801900123684607C8FDF7ED
:1032000057FC012211460020FDF78AFB00F01CF854
:10321000012211460148FDF71FFE0EBD00000B40C4
:1032200010B5002201210748FDF7D4FD002201213D
:103230000448FDF7EDFD012211460248FDF7D4FDDB
:1032400010BD000000000B4010B5012211460448DB
:10325000FDF7C0FD002201210148FDF7CFFD10BDA3
:1032600000000B4070B50024002516E06006040E37
:1032700000BFFFF7A3FF0028FBD01E20FFF718FFB9
:10328000FFF79CFF002806D00120044300BFFFF792
:1032900095FF0028FBD1681CC5B2082DE6DB20464F
:1032A00070BD000010B50446002C05D00122114667
:1032B0000448FDF7D1FD04E0002201210148FDF79B
:1032C000CBFD10BD00000B4010B5FFF7BDFF002087
:1032D000FFF7E8FF1220FFF7DDFE0120FFF7E2FF16
:1032E0001420FFF7E5FEFFF79BFFFFF767FF0028BD
:1032F0000BD100BFFFF762FF0028FBD000BFFFF734
:103300005DFF0028FBD1012010BD0020FCE770B557
:1033100004460D462046FEF7AFFD70BD10B50028EF
:1033200023D0124B0022001F196803E0814203D80A
:103330000A4649680029F9D1002A0AD01368841A7C
:103340009C4204D1006818181060104602E05060DA
:1033500000E01860002907D002680B1A934203D1DD
:103360000B68D21802604968416010BD340000202B
:1033700008B500240025FDF711FEFDF7F3FB1FA0A3
:10338000FFF7AAF903E0FF20F530FFF783FEFEF711
:103390004BFA0028F7D11DA0FFF79EF92CE0681C1E
:1033A00080B2054696281BDBFFF7B6FE1420FFF718
:1033B00071FE1A480078009019480378194802787D
:1033C0001948017819A0FFF787F91FA0FFF784F9C2
:1033D000FEF7E4FC21A0FFF77FF90025FDF788FB4D
:1033E0000020FDF793FB0446002C02D02046FEF798
:1033F0007DFB0A20FFF74EFED1E70000383236365B
:103400005F494E49545F454E440A0000BDD3C8EBA6
:103410006F6E656E6574B3C9B9A60000190000200F
:10342000180000201B0000201A00002068756D2085
:1034300074656D703D2564202E2564202564202E42
:1034400025640D0A000000004F6E654E65745F53E1
:10345000656E64446174610D0A00000073656E64FA
:103460005F646174615F656E640A0000F0B50B30E3
:10347000C108C900144F0026144A0FE003688B42AC
:103480000BD38B4205D95C1A4318456830C3083BFF
:1034900000E04368136002C004E0021D10680028C9
:1034A000ECD13046002803D13868002801D0002034
:1034B000F0BD064A06481060064A121AD208D20029
:1034C00044C001203860D7E73800002034000020D5
:1034D0004402002040020020004040404040404064
:1034E00040404141414141404040404040404040D7
:1034F000404040404040404040050202020202027B
:1035000002020202020202020220202020202020C9
:1035100020202002020202020202909090909090DD
:10352000101010101010101010101010101010109B
:10353000101010100202020202028888888888880F
:1035400008080808080808080808080808080808FB
:10355000080808080202020240000000D9340000F6
:10356000803500000000002040000000A42700007B
:10357000C03500004000002000040000B427000017
:10358000000000000000000000000000000000003B
:10359000000000000000000000000000000000002B
:1035A00000000000006CDC020000000000000000D1
:1035B000000000000000000000000000000000000B
:040000050000016591
:00000001FF
