:020000040000FA
:1000000098020020C100000091030000510300008D
:10001000FFFFFFFFFFFFFFFFFFFFFFFFFFFFFFFFF0
:10002000FFFFFFFFFFFFFFFFFFFFFFFF9503000044
:10003000FFFFFFFFFFFFFFFF93030000F903000036
:1000400003010000030100000301000003010000A0
:100050000301000003010000030100000301000090
:1000600003010000FFFFFFFF030100000301000088
:10007000030100000301000003010000FFFFFFFF78
:10008000FFFFFFFF03010000030100000301000068
:100090000301000003010000030100000301000050
:1000A000E50400000301000003010000030100005B
:1000B0000301000003010000030100000301000030
:1000C0001048804710488047104800471048016991
:1000D000002910D1416900290DD1816900290AD177
:1000E000C169002907D1BFF34F8F0A490A48C86088
:1000F000BFF34F8FFEE77047FEE7FEE7FEE7FEE740
:10010000FEE7FEE7CD000000FD0300001D0100003A
:100110000003084000ED00E00400FA0504488546AD
:1001200000F01EF8004800476D0C0000C046C046B5
:100130009802002030B50B46014600202022012401
:1001400009E00D46D5409D4205D31D469540491B0B
:100150002546954040191546521E002DF1DC30BD54
:10016000064C0125064E05E0E36807CC2B430C3C0A
:1001700098471034B442F7D3FFF7D4FFF40C0000D3
:10018000140D0000F0B596460A461349C000461803
:1001900000230025FF2098402C46104216D0002056
:1001A000012199408C461146C1406746394206D02C
:1001B00087000F21B9400D437146B9400C43401CE4
:1001C0000828F0D33068A843204330600833361D38
:1001D000082BDEDDF0BD00002020024070B5184D78
:1001E0000446686B4607760F00F02EF8154920602C
:1001F000330000F089FA081405070714140E1114CF
:10020000606000E06160296A6068052909D34009DF
:1002100008E00120C003F3E77D200002F0E70020A2
:10022000EEE7C840A060A96A4903490F072902D038
:10023000C840E06070BD0321FFF77CFFF9E70000D4
:100240000080084000127A000C490868C869C20F93
:100250004868400AC007C00F0ED00948002A0BD1D9
:100260008869C00D0007000F00D110208969044A79
:100270004902890F5043C840704700000080084081
:1002800000127A001FB541090A4A89008A18002124
:100290002E2800D10221C006C00E1268032383401D
:1002A0001A40C24054186846FFF798FF029804B0FD
:1002B000E04010BD38800840F0B5084F7C6AFD6A08
:1002C0003E6B84438D439643002B02D004430D4381
:1002D00016437C62FD623E63F0BD00000080084072
:1002E000002A026801D00A4300E08A430260704796
:1002F000002A426801D00A4300E08A434260704706
:10030000002A026901D00A4300E08A430261704773
:10031000002A08D0012A09D082688A438260C26814
:100320008A43C260704782680A43F7E7C2680A439B
:10033000C26082688A4382607047C069084000D00A
:1003400001207047002A01D04162704781627047E6
:10035000024801680029FCD070470000000000201E
:1003600070B500210120800401230A46FFF7A4FF95
:100370000324064DA403012221462846FFF7B0FFBF
:10038000012221462846FFF7DDFF70BD00400B40EB
:100390007047704770470000042204490428086928
:1003A00002D09043086170471043FBE700E000E093
:1003B0000749002806D00128086906D040084000F7
:1003C0000861704700208861704701221043F7E7F9
:1003D00000E000E0044902220028086901D010432F
:1003E00000E090430861704700E000E00149486187
:1003F0007047000000E000E070470000F0B53449AD
:100400001020C8603349012008603348016B402444
:100410002143016331498A68272AFCD1416A0322BA
:1004200092029143416241680122D202114341602C
:100430008168C908C907FBD04168C908C900C91C3F
:100440004160416B4907490F0329FAD1244B1968D0
:10045000C908C900491C19600025056241685E157C
:10046000B143416001689F153943016041681A1525
:100470001143416081688908C907FBD0016BA14322
:1004800001630168B9430160032109068161416884
:100490003143416081684908C907FBD01968C90820
:1004A000C900891C196005624168C908C900491C56
:1004B0004160416B4907490F0129FAD118681021A1
:1004C000084318601868090208431860F0BD00006E
:1004D00000810840008308400080084000A10640D9
:1004E0000002084010B5114C2021204600F034F8DD
:1004F000002814D0204600F07FF8C4B221460CA09A
:1005000000F0DEF8012189030C48302C08D0312C92
:1005100005D10122FFF716FF09A000F0D1F810BDA8
:100520000022FFF70FFF09A0F7E7000000000440DA
:1005300064617461203D2025630A000000400B4087
:100540004C454431204F46460A0000004C4544319A
:10055000204F4E0A000000000069084000D0012032
:100560007047000070B504460D46C88889886268E7
:1005700008432989184B1A401143084369890843E5
:10058000606001208007844206D11820FFF77AFEC0
:100590002968FFF7CFFD60621048844206D11A2017
:1005A000FFF770FE2968FFF7C5FD60620C488442C2
:1005B00006D11C20FFF766FE2968FFF7BBFD6062CD
:1005C0000848844206D11E20FFF75CFE2968FFF729
:1005D000B1FD606270BD0000FCE0FFFF0000044060
:1005E0000010004000100440002AC26801D00A43F5
:1005F00000E08A43C2607047006880B270470160C3
:10060000704710238B404168002A01D0194300E055
:1006100099434160704700003EB521235B021943B6
:100620000123FFF749FE062210210020FFF7AAFD53
:10063000062220210020FFF7A5FDE12040020090C6
:10064000FF200130694688800020C88008810C4C5A
:1006500048812046FFF786FF012211462046FFF71A
:10066000C3FF012200212046FFF7CBFF01221146E4
:100670002046FFF7C6FF0349A00108603EBD000009
:100680000000044000E100E070B50D46064600247D
:1006900004E0304600F006F8641CE4B2295D00294D
:1006A000F7D170BD10B5054C2046FFF7A8FF80219B
:1006B0002046FFF751FF0028F9D010BD000004408C
:1006C0000FB410B503A9044B044A029800F038F89F
:1006D00010BC08BC04B01847490C000014000020EE
:1006E0000FB410B504A9074B02AA039800F028F82C
:1006F000044602A9002000F0CBF9204610BC08BC3B
:1007000004B01847910A000030B47446641E25787E
:10071000641CAB4200D21D46635D5B00E31830BC35
:10072000184702E008C8121F08C1002AFAD1704712
:100730007047002001E001C1121F002AFBD1704761
:10074000FFB58FB00546002606E025280AD0129A8C
:10075000119990476D1C761C28780028F5D13046F9
:1007600013B0F0BD002402940121B54A009400E0CA
:1007700004436D1C2B780846203B98401042F7D16B
:1007800028782A280ED002222878014630390929F3
:1007900016D802990A2359433039401814436D1C66
:1007A0000290F1E7109802C802911090002904DA33
:1007B00001204003044348420290022004436D1C80
:1007C00028782E2817D10420044368786D1C2A2825
:1007D0000CD110986D1C02C8009110900BE000998C
:1007E0000A225143303940186D1C00902878014688
:1007F00030390929F3D928786C2810D006DC4C2828
:100800001AD068280ED06A2817D104E0742813D0B3
:100810007A2812D110E00120400504430CE00121A8
:10082000090501E0032109050C436978814203D1E0
:100830000120000524186D1C6D1C2878692874D0CF
:1008400006DC00288BD0632827D0642806D16CE012
:100850006E2808D073282CD0752878D0129A119958
:100860009047761C5FE06002400F022809D0032801
:100870000DD00428109801680DD00E60001D109056
:1008800051E01098F21701680E604A60F6E7109880
:1008900001680E80F2E70E70F0E710986A46017862
:1008A0001173001D10900020507303A801900120C7
:1008B00005E0109802C8019110900020C043610724
:1008C0000CD5002700E07F1C00998F420FDA874289
:1008D000F9DB0199C95D0029F5D108E0002700E0A6
:1008E0007F1C8742FCDB0199C95D0029F8D1029881
:1008F0002146C01B0290129B119A00F0B3F8801998
:10090000C61907E0019801990078491C0191129AD3
:10091000119990477F1EF5D22146129B119A029899
:1009200000F090F886196D1C16E70A2001901099C6
:1009300001C910916102490F032900D100B20429B5
:1009400000D140B2002803DA40422D2103E00DE03F
:10095000210504D52B216A461173012103E0E1072B
:1009600011D02021F7E70CAF0C9114E00A20019080
:10097000109901C910916102490F032900D180B279
:10098000042900D1C0B20021EDE70199FFF7D2FBA5
:1009900030317F1E39700028F7D104A8C01B2030E9
:1009A0000190600704D5012000048443009801E011
:1009B000012000900199884201DD401A00E00020EA
:1009C000411800900C9809180298401A0290E00310
:1009D00006D42146129B119A029800F043F886191A
:1009E00000200D9008E003A9085C129A1199904725
:1009F0000D98401C761C0D900C998842F3DBE003A7
:100A00000CD52146129B119A029800F02BF88619FA
:100A100004E0129A302011999047761C0099481EE4
:100A200000900029F5DC05E03878129A7F1C1199B6
:100A30009047761C0199481E01900029F4DC6BE771
:100A400009280100F8B5044600251E46174688040B
:100A500004D405E039462020B0476D1C641EF9D54A
:100A60002846F8BDFFB50446002581B01E46C803E0
:100A700001D5302700E02027880404D505E038465A
:100A80000399B0476D1C641EF9D5284605B0F0BD2A
:100A90000A68531C0B601070704770B57D250446C2
:100AA000ED0002E0284600F007F82046641EA4B2DC
:100AB0000028F7D170BD000010B504460420C043E3
:100AC000FFF76AFC114810490068FFF733FBFFF796
:100AD0008DFC0020FFF77EFC0020FFF769FC012061
:100AE000FFF766FC00210A4A03E01369D803FCD52E
:100AF000491CA142F9D30120C043FFF759FC002053
:100B0000FFF756FC10BD000000127A001000002014
:100B100000E000E070B500F05DF8002000F086F81D
:100B20001220FFF7BAFF012000F080F81420FFF731
:100B3000C3FF204C002201212046FFF7D1FB0022F9
:100B400001212046FFF7E4FB012211462046FFF772
:100B5000CFFB00F033F800282BD100F02FF800284D
:100B6000FBD000F02BF80028FBD100F043F8124C2A
:100B7000A07100F03FF8E07100F03CF8207100F047
:100B800039F8607100F036F8207200F023F8012087
:100B900000F04CF820796379A179C2185518E279F0
:100BA000267AAD18EDB2B54203D1A170E270207083
:100BB000637070BD00000B400400002010B50121DF
:100BC0000348FFF7BAFB002800D0012010BD000049
:100BD00000000B4010B5064C012211462046FFF7DD
:100BE0007FFB002201212046FFF78AFB10BD000099
:100BF00000000B4070B50024254601266006040E57
:100C0000FFF7DCFF0028FBD01E20FFF755FFFFF7A2
:100C1000D5FF002804D03443FFF7D0FF0028FBD1D4
:100C20006D1CEDB2082DE9D3204670BD10B5054B03
:100C3000002801D0012200E0002201211846FFF720
:100C400081FB10BD00000B4070B5074D0446C1B2DA
:100C50002846FFF7D4FC80212846FFF77DFC0028BA
:100C6000F9D0204670BD000000000440FFF778FB7B
:100C7000FFF7D2FC144E0CA13046FFF705FDFF270D
:100C8000124D134CF537FFF745FF2B78227811A151
:100C90001748FFF725FD16493046FFF7F5FC3846A3
:100CA000FFF7FBFEEFE700002D2D2D2D2D2D4854D5
:100CB0003332205541525420544553542D2D2D2D5F
:100CC0002D2D2D0D0A00000000000440060000201C
:100CD00004000020B5B1C7B0CEC2B6C8A3BA253251
:100CE0006420B5B1C7B0CAAAB6C83A2532640A00B2
:100CF00018000020140D0000000000201800000063
:100D0000220700002C0D00001800002080020000C7
:100D1000320700000000000000000000000000009A
:0C0D200000000000006CDC02000000007D
:04000005000000C136
:00000001FF
