:020000040000FA
:1000000008020020C1000000650100005501000049
:10001000FFFFFFFFFFFFFFFFFFFFFFFFFFFFFFFFF0
:10002000FFFFFFFFFFFFFFFFFFFFFFFF6901000072
:10003000FFFFFFFFFFFFFFFF670100006B010000F4
:1000400003010000030100000301000003010000A0
:100050000301000003010000030100000301000090
:1000600003010000FFFFFFFF030100000301000088
:10007000030100000301000003010000FFFFFFFF78
:10008000FFFFFFFF03010000030100000301000068
:100090000301000003010000030100000301000050
:1000A0000301000003010000030100000301000040
:1000B0000301000003010000030100000301000030
:1000C0001048804710488047104800471048016991
:1000D000002910D1416900290DD1816900290AD177
:1000E000C169002907D1BFF34F8F0A490A48C86088
:1000F000BFF34F8FFEE77047FEE7FEE7FEE7FEE740
:10010000FEE7FEE7CD0000006D0100001D010000CC
:100110000003084000ED00E00400FA0503488546AE
:1001200000F006F8004800477302000008020020B3
:10013000064C0125064E05E0E36807CC2B430C3C3A
:1001400098471034B442F7D3FFF7ECFF7802000071
:1001500098020000024801680029FCD070470000A6
:10016000000000207047704770477047F0B5344971
:100170001020C8603349012008603348016B4024D7
:100180002143016331498A68272AFCD1416A03224D
:1001900092029143416241680122D20211434160BF
:1001A0008168C908C907FBD04168C908C900C91CD2
:1001B0004160416B4907490F0329FAD1244B196863
:1001C000C908C900491C19600025056241685E150F
:1001D000B143416001689F153943016041681A15B8
:1001E0001143416081688908C907FBD0016BA143B5
:1001F00001630168B9430160032109068161416817
:100200003143416081684908C907FBD01968C908B2
:10021000C900891C196005624168C908C900491CE8
:100220004160416B4907490F0129FAD11868102133
:10023000084318601868090208431860F0BD000000
:1002400000810840008308400080084000A106406B
:100250000002084002E008C8121F08C1002AFAD1B3
:1002600070477047002001E001C1121F002AFBD136
:100270007047002070470000980200000000002036
:1002800004000000540200009C0200000400002052
:0C029000040200006402000000000000F6
:04000005000000C136
:00000001FF
