:020000040000FA
:1000000010020020C100000025040000E5030000EC
:10001000FFFFFFFFFFFFFFFFFFFFFFFFFFFFFFFFF0
:10002000FFFFFFFFFFFFFFFFFFFFFFFF29040000AF
:10003000FFFFFFFFFFFFFFFF270400002B0400006E
:1000400003010000030100000301000003010000A0
:100050000301000003010000030100000301000090
:1000600003010000FFFFFFFF030100000301000088
:10007000030100000301000003010000FFFFFFFF78
:10008000FFFFFFFF03010000DD010000030100008E
:100090000301000003010000030100000301000050
:1000A0000301000003010000030100000301000040
:1000B0000301000003010000030100000301000030
:1000C0001048804710488047104800471048016991
:1000D000002910D1416900290DD1816900290AD177
:1000E000C169002907D1BFF34F8F0A490A48C86088
:1000F000BFF34F8FFEE77047FEE7FEE7FEE7FEE740
:10010000FEE7FEE7CD0000002D0400001D01000009
:100110000003084000ED00E00400FA0504488546AD
:1001200000F01EF8004800475D0A0000C046C046C7
:100130001002002030B50B46014600202022012489
:1001400009E00D46D5409D4205D31D469540491B0B
:100150002546954040191546521E002DF1DC30BD54
:10016000064C0125064E05E0E36807CC2B430C3C0A
:1001700098471034B442F7D3FFF7D4FF8C0A00003D
:10018000AC0A0000F0B596460A461349C00046186E
:1001900000230025FF2098402C46104216D0002056
:1001A000012199408C461146C1406746394206D02C
:1001B00087000F21B9400D437146B9400C43401CE4
:1001C0000828F0D33068A843204330600833361D38
:1001D000082BDEDDF0BD00002020024070B5184D78
:1001E000284600F05BF8002829D0164C7D21608855
:1001F000C900401C80B2608088421DD16078401CDC
:10020000C1B2617010A000F043FA00206080227833
:1002100001218903184B002A02D0012A07D00BE0E4
:100220000022184600F0D8F80120207004E0207069
:100230000122184600F0D0F8284600F01FF870BDE3
:1002400000700740040000202D2D2D2D2D2D2D2D6B
:100250002D2D2D2D2D4C454420464C4153482063D7
:100260006F756E74203A253032642D2D2D2D2D2D75
:100270002D2D2D2D2D2D0A0000400B4041684908E1
:1002800049004160BFF34F8F704704220029016885
:1002900001D0114300E09143016070474068C007FE
:1002A00000D0012070470029016802D001221143CB
:1002B00001E04908490001607047C16070478160F2
:1002C0007047000070B5184D0446686B4607760FFE
:1002D00000F02EF815492060330000F0E9F9081409
:1002E00005070714140E1114606000E06160296AAC
:1002F0006068052909D3400908E00120C003F3E73D
:100300007D200002F0E70020EEE7C840A060A96A67
:100310004903490F072902D0C840E06070BD03219E
:10032000FFF708FFF9E700000080084000127A009C
:100330000C490868C869C20F4868400AC007C00F66
:100340000ED00948002A0BD18869C00D0007000FA4
:1003500000D110208969044A4902890F5043C840DE
:10036000704700000080084000127A001FB5410964
:100370000A4A89008A1800212E2800D10221C006CD
:10038000C00E1268032383401A40C24054186846C6
:10039000FFF798FF029804B0E04010BD3880084095
:1003A000F0B5084F7C6AFD6A3E6B84438D439643EB
:1003B000002B02D004430D4316437C62FD623E6372
:1003C000F0BD000000800840002A026801D00A4306
:1003D00000E08A4302607047002A01D04162704702
:1003E00081627047024801680029FCD07047000014
:1003F0000000002070B500210120800401230A467E
:10040000FFF7CEFF0324064DA40301222146284610
:10041000FFF7DAFF012221462846FFF7DDFF70BD16
:1004200000400B407047704770477047F0B5344943
:100430001020C8603349012008603348016B402414
:100440002143016331498A68272AFCD1416A03228A
:1004500092029143416241680122D20211434160FC
:100460008168C908C907FBD04168C908C900C91C0F
:100470004160416B4907490F0329FAD1244B1968A0
:10048000C908C900491C19600025056241685E154C
:10049000B143416001689F153943016041681A15F5
:1004A0001143416081688908C907FBD0016BA143F2
:1004B00001630168B9430160032109068161416854
:1004C0003143416081684908C907FBD01968C908F0
:1004D000C900891C196005624168C908C900491C26
:1004E0004160416B4907490F0129FAD11868102171
:1004F000084318601868090208431860F0BD00003E
:1005000000810840008308400080084000A10640A8
:100510000002084010B500200122520401230146C8
:10052000FFF73EFF01200D49800408600C4C0021BC
:100530002046FFF7C4FE0B487D21C9000068FFF785
:10054000F9FD01462046FFF7B8FE01212046FFF7DE
:10055000AAFE01212046FFF798FE10BD00E100E051
:1005600000700740080000200069084000D001200A
:100570007047000070B504460D46C88889886268D7
:1005800008432989184B1A401143084369890843D5
:10059000606001208007844206D11820FFF7E6FE44
:1005A0002968FFF7C7FD60621048844206D11A200F
:1005B000FFF7DCFE2968FFF7BDFD60620C4884424E
:1005C00006D11C20FFF7D2FE2968FFF7B3FD606259
:1005D0000848844206D11E20FFF7C8FE2968FFF7AD
:1005E000A9FD606270BD0000FCE0FFFF0000044058
:1005F0000010004000100440002AC26801D00A43E5
:1006000000E08A43C26070470160704710238B404E
:100610004168002A01D0194300E0994341607047C6
:100620003EB521235B0219430123FFF7B9FE0622E1
:1006300010210020FFF7A6FD062220210020FFF751
:10064000A1FDE12040020090FF2001306946888032
:100650000020C88008810C4C48812046FFF78AFFA3
:10066000012211462046FFF7C7FF01220021204644
:10067000FFF7CCFF012211462046FFF7C7FF0349D1
:10068000A00108603EBD00000000044000E100E061
:100690000FB410B503A9044B044A029800F024F8E3
:1006A00010BC08BC04B01847390A00000C00002038
:1006B00030B47446641E2578641CAB4200D21D46DB
:1006C000635D5B00E31830BC184702E008C8121FE6
:1006D00008C1002AFAD170477047002001E001C12B
:1006E000121F002AFBD17047FFB58FB005460026C8
:1006F00006E025280AD0129A119990476D1C761CA5
:1007000028780028F5D1304613B0F0BD00240294BB
:100710000121B54A009400E004436D1C2B78084683
:10072000203B98401042F7D128782A280ED0022288
:10073000287801463039092916D802990A235943E5
:100740003039401814436D1C0290F1E7109802C82C
:1007500002911090002904DA01204003044348422A
:100760000290022004436D1C28782E2817D1042003
:10077000044368786D1C2A280CD110986D1C02C89F
:10078000009110900BE000990A2251433039401833
:100790006D1C00902878014630390929F3D9287852
:1007A0006C2810D006DC4C281AD068280ED06A2895
:1007B00017D104E0742813D07A2812D110E0012058
:1007C000400504430CE00121090501E0032109056E
:1007D0000C436978814203D10120000524186D1C67
:1007E0006D1C2878692874D006DC00288BD063281B
:1007F00027D0642806D16CE06E2808D073282CD04E
:10080000752878D0129A11999047761C5FE06002A3
:10081000400F022809D003280DD004281098016841
:100820000DD00E60001D109051E01098F217016875
:100830000E604A60F6E7109801680E80F2E70E70CD
:10084000F0E710986A4601781173001D109000209F
:10085000507303A80190012005E0109802C801918F
:1008600010900020C04361070CD5002700E07F1CDA
:1008700000998F420FDA8742F9DB0199C95D00299F
:10088000F5D108E0002700E07F1C8742FCDB0199DE
:10089000C95D0029F8D102982146C01B0290129B25
:1008A000119A00F0B3F88019C61907E00198019970
:1008B0000078491C0191129A119990477F1EF5D238
:1008C0002146129B119A029800F090F886196D1C2F
:1008D00016E70A200190109901C910916102490F91
:1008E000032900D100B2042900D140B2002803DA64
:1008F00040422D2103E00DE0210504D52B216A465D
:100900001173012103E0E10711D02021F7E70CAFBB
:100910000C9114E00A200190109901C91091610214
:10092000490F032900D180B2042900D1C0B20021AF
:10093000EDE70199FFF7FEFB30317F1E397000288B
:10094000F7D104A8C01B20300190600704D5012016
:1009500000048443009801E001200090019988423E
:1009600001DD401A00E00020411800900C980918A1
:100970000298401A0290E00306D42146129B119A75
:10098000029800F043F8861900200D9008E003A9B2
:10099000085C129A119990470D98401C761C0D9096
:1009A0000C998842F3DBE0030CD52146129B119A87
:1009B000029800F02BF8861904E0129A3020119961
:1009C0009047761C0099481E00900029F5DC05E050
:1009D0003878129A7F1C11999047761C0199481E0D
:1009E00001900029F4DC6BE709280100F8B5044602
:1009F00000251E461746880404D405E03946202009
:100A0000B0476D1C641EF9D52846F8BDFFB50446F5
:100A1000002581B01E46C80301D5302700E02027FD
:100A2000880404D505E038460399B0476D1C641E60
:100A3000F9D5284605B0F0BD70B5074D0446C1B2E2
:100A40002846FFF7E1FD80212846FFF78DFD0028AD
:100A5000F9D0204670BD000000000440FFF7CAFC3A
:100A6000FFF758FDFFF7DCFD01A0FFF711FEFEE7E1
:100A70002D2D2D2D2D2D2D2D2D54696D6520546579
:100A800073742D2D2D2D2D2D0A000000AC0A0000B1
:100A90000000002010000000CA060000BC0A000090
:100AA0001000002000020000DA0600000000000034
:0C0AB00000000000006CDC0200000000F0
:04000005000000C136
:00000001FF
